{
  "_format": "hh-sol-artifact-1",
  "contractName": "EntryPoint",
  "sourceName": "contracts/EntryPoint.sol",
  "abi": [
    {
      "inputs": [
        {
          "internalType": "address",
          "name": "_multiSigController",
          "type": "address"
        }
      ],
      "stateMutability": "nonpayable",
      "type": "constructor"
    },
    {
      "inputs": [],
      "name": "AccessControlBadConfirmation",
      "type": "error"
    },
    {
      "inputs": [
        {
          "internalType": "address",
          "name": "account",
          "type": "address"
        },
        {
          "internalType": "bytes32",
          "name": "neededRole",
          "type": "bytes32"
        }
      ],
      "name": "AccessControlUnauthorizedAccount",
      "type": "error"
    },
    {
      "inputs": [
        {
          "internalType": "address",
          "name": "target",
          "type": "address"
        }
      ],
      "name": "AddressEmptyCode",
      "type": "error"
    },
    {
      "inputs": [
        {
          "internalType": "address",
          "name": "account",
          "type": "address"
        }
      ],
      "name": "AddressInsufficientBalance",
      "type": "error"
    },
    {
      "inputs": [],
      "name": "FailedInnerCall",
      "type": "error"
    },
    {
      "inputs": [],
      "name": "ReentrancyGuardReentrantCall",
      "type": "error"
    },
    {
      "inputs": [
        {
          "internalType": "address",
          "name": "token",
          "type": "address"
        }
      ],
      "name": "SafeERC20FailedOperation",
      "type": "error"
    },
    {
      "anonymous": false,
      "inputs": [
        {
          "indexed": true,
          "internalType": "address",
          "name": "token",
          "type": "address"
        },
        {
          "indexed": false,
          "internalType": "bool",
          "name": "status",
          "type": "bool"
        }
      ],
      "name": "AllowedTokenUpdated",
      "type": "event"
    },
    {
      "anonymous": false,
      "inputs": [
        {
          "indexed": true,
          "internalType": "address",
          "name": "assetAddress",
          "type": "address"
        },
        {
          "indexed": true,
          "internalType": "address",
          "name": "tokenAddress",
          "type": "address"
        },
        {
          "indexed": true,
          "internalType": "address",
          "name": "caller",
          "type": "address"
        },
        {
          "indexed": false,
          "internalType": "uint256",
          "name": "units",
          "type": "uint256"
        },
        {
          "indexed": false,
          "internalType": "uint256",
          "name": "price",
          "type": "uint256"
        },
        {
          "indexed": false,
          "internalType": "bytes32",
          "name": "positionHash",
          "type": "bytes32"
        }
      ],
      "name": "BoughtPosition",
      "type": "event"
    },
    {
      "anonymous": false,
      "inputs": [
        {
          "indexed": true,
          "internalType": "address",
          "name": "assetAddress",
          "type": "address"
        },
        {
          "indexed": true,
          "internalType": "address",
          "name": "tokenAddress",
          "type": "address"
        },
        {
          "indexed": true,
          "internalType": "address",
          "name": "caller",
          "type": "address"
        },
        {
          "indexed": false,
          "internalType": "uint256",
          "name": "units",
          "type": "uint256"
        },
        {
          "indexed": false,
          "internalType": "bytes32",
          "name": "positionHash",
          "type": "bytes32"
        }
      ],
      "name": "DelistedPosition",
      "type": "event"
    },
    {
      "anonymous": false,
      "inputs": [
        {
          "indexed": false,
          "internalType": "uint256",
          "name": "discountFactor",
          "type": "uint256"
        }
      ],
      "name": "DiscountFactorUpdated",
      "type": "event"
    },
    {
      "anonymous": false,
      "inputs": [
        {
          "indexed": true,
          "internalType": "address",
          "name": "assetAddress",
          "type": "address"
        },
        {
          "indexed": true,
          "internalType": "address",
          "name": "tokenAddress",
          "type": "address"
        },
        {
          "indexed": true,
          "internalType": "address",
          "name": "caller",
          "type": "address"
        },
        {
          "indexed": false,
          "internalType": "uint256",
          "name": "units",
          "type": "uint256"
        }
      ],
      "name": "EnteredPosition",
      "type": "event"
    },
    {
      "anonymous": false,
      "inputs": [
        {
          "indexed": false,
          "internalType": "address",
          "name": "assetAddress",
          "type": "address"
        },
        {
          "indexed": false,
          "internalType": "uint256",
          "name": "numerator",
          "type": "uint256"
        },
        {
          "indexed": false,
          "internalType": "uint256",
          "name": "denominator",
          "type": "uint256"
        }
      ],
      "name": "ExchangeRateUpdated",
      "type": "event"
    },
    {
      "anonymous": false,
      "inputs": [
        {
          "indexed": true,
          "internalType": "address",
          "name": "assetAddress",
          "type": "address"
        },
        {
          "indexed": true,
          "internalType": "address",
          "name": "tokenAddress",
          "type": "address"
        },
        {
          "indexed": true,
          "internalType": "address",
          "name": "caller",
          "type": "address"
        },
        {
          "indexed": false,
          "internalType": "uint256",
          "name": "units",
          "type": "uint256"
        },
        {
          "indexed": false,
          "internalType": "uint256",
          "name": "price",
          "type": "uint256"
        },
        {
          "indexed": false,
          "internalType": "bytes32",
          "name": "positionHash",
          "type": "bytes32"
        }
      ],
      "name": "ListedPositionForSale",
      "type": "event"
    },
    {
      "anonymous": false,
      "inputs": [
        {
          "indexed": true,
          "internalType": "bytes32",
          "name": "role",
          "type": "bytes32"
        },
        {
          "indexed": true,
          "internalType": "bytes32",
          "name": "previousAdminRole",
          "type": "bytes32"
        },
        {
          "indexed": true,
          "internalType": "bytes32",
          "name": "newAdminRole",
          "type": "bytes32"
        }
      ],
      "name": "RoleAdminChanged",
      "type": "event"
    },
    {
      "anonymous": false,
      "inputs": [
        {
          "indexed": true,
          "internalType": "bytes32",
          "name": "role",
          "type": "bytes32"
        },
        {
          "indexed": true,
          "internalType": "address",
          "name": "account",
          "type": "address"
        },
        {
          "indexed": true,
          "internalType": "address",
          "name": "sender",
          "type": "address"
        }
      ],
      "name": "RoleGranted",
      "type": "event"
    },
    {
      "anonymous": false,
      "inputs": [
        {
          "indexed": true,
          "internalType": "bytes32",
          "name": "role",
          "type": "bytes32"
        },
        {
          "indexed": true,
          "internalType": "address",
          "name": "account",
          "type": "address"
        },
        {
          "indexed": true,
          "internalType": "address",
          "name": "sender",
          "type": "address"
        }
      ],
      "name": "RoleRevoked",
      "type": "event"
    },
    {
      "anonymous": false,
      "inputs": [
        {
          "indexed": false,
          "internalType": "address",
          "name": "newVaultAddress",
          "type": "address"
        },
        {
          "indexed": false,
          "internalType": "address",
          "name": "oldVaultAddress",
          "type": "address"
        }
      ],
      "name": "VaultAddressUpdated",
      "type": "event"
    },
    {
      "inputs": [],
      "name": "ADMIN_ROLE",
      "outputs": [
        {
          "internalType": "bytes32",
          "name": "",
          "type": "bytes32"
        }
      ],
      "stateMutability": "view",
      "type": "function"
    },
    {
      "inputs": [],
      "name": "DEFAULT_ADMIN_ROLE",
      "outputs": [
        {
          "internalType": "bytes32",
          "name": "",
          "type": "bytes32"
        }
      ],
      "stateMutability": "view",
      "type": "function"
    },
    {
      "inputs": [],
      "name": "HOLDER",
      "outputs": [
        {
          "internalType": "bytes32",
          "name": "",
          "type": "bytes32"
        }
      ],
      "stateMutability": "view",
      "type": "function"
    },
    {
      "inputs": [],
      "name": "MULTISIG_CONTROLLER_ROLE",
      "outputs": [
        {
          "internalType": "bytes32",
          "name": "",
          "type": "bytes32"
        }
      ],
      "stateMutability": "view",
      "type": "function"
    },
    {
      "inputs": [],
      "name": "SETTER_MANAGER_ROLE",
      "outputs": [
        {
          "internalType": "bytes32",
          "name": "",
          "type": "bytes32"
        }
      ],
      "stateMutability": "view",
      "type": "function"
    },
    {
      "inputs": [
        {
          "internalType": "bytes32",
          "name": "positionHash",
          "type": "bytes32"
        },
        {
          "internalType": "uint256",
          "name": "units",
          "type": "uint256"
        }
      ],
      "name": "buyPosition",
      "outputs": [],
      "stateMutability": "nonpayable",
      "type": "function"
    },
    {
      "inputs": [],
      "name": "contractAssetHasExited",
      "outputs": [
        {
          "internalType": "bool",
          "name": "",
          "type": "bool"
        }
      ],
      "stateMutability": "view",
      "type": "function"
    },
    {
      "inputs": [
        {
          "internalType": "bytes32",
          "name": "positionHash",
          "type": "bytes32"
        },
        {
          "internalType": "uint256",
          "name": "units",
          "type": "uint256"
        }
      ],
      "name": "delistPosition",
      "outputs": [],
      "stateMutability": "nonpayable",
      "type": "function"
    },
    {
      "inputs": [
        {
          "internalType": "address",
          "name": "_assetAddress",
          "type": "address"
        },
        {
          "internalType": "address",
          "name": "_tokenAddress",
          "type": "address"
        },
        {
          "internalType": "uint256",
          "name": "units",
          "type": "uint256"
        }
      ],
      "name": "enterPosition",
      "outputs": [],
      "stateMutability": "nonpayable",
      "type": "function"
    },
    {
      "inputs": [
        {
          "internalType": "address",
          "name": "_assetAddress",
          "type": "address"
        }
      ],
      "name": "getAssetUrl",
      "outputs": [
        {
          "internalType": "string",
          "name": "",
          "type": "string"
        }
      ],
      "stateMutability": "view",
      "type": "function"
    },
    {
      "inputs": [
        {
          "internalType": "bytes32",
          "name": "role",
          "type": "bytes32"
        }
      ],
      "name": "getRoleAdmin",
      "outputs": [
        {
          "internalType": "bytes32",
          "name": "",
          "type": "bytes32"
        }
      ],
      "stateMutability": "view",
      "type": "function"
    },
    {
      "inputs": [
        {
          "internalType": "address",
          "name": "userAddress",
          "type": "address"
        }
      ],
      "name": "getUserPositions",
      "outputs": [
        {
          "components": [
            {
              "internalType": "bytes32",
              "name": "hashId",
              "type": "bytes32"
            },
            {
              "internalType": "address",
              "name": "assetAddress",
              "type": "address"
            },
            {
              "internalType": "address",
              "name": "preferredTokenForSale",
              "type": "address"
            },
            {
              "internalType": "address",
              "name": "owner",
              "type": "address"
            },
            {
              "internalType": "uint256",
              "name": "units",
              "type": "uint256"
            },
            {
              "internalType": "uint256",
              "name": "price",
              "type": "uint256"
            },
            {
              "internalType": "uint256",
              "name": "nonce",
              "type": "uint256"
            }
          ],
          "internalType": "struct Structs.Position[]",
          "name": "",
          "type": "tuple[]"
        }
      ],
      "stateMutability": "view",
      "type": "function"
    },
    {
      "inputs": [],
      "name": "getVaultAddress",
      "outputs": [
        {
          "internalType": "address",
          "name": "",
          "type": "address"
        }
      ],
      "stateMutability": "view",
      "type": "function"
    },
    {
      "inputs": [
        {
          "internalType": "bytes32",
          "name": "role",
          "type": "bytes32"
        },
        {
          "internalType": "address",
          "name": "account",
          "type": "address"
        }
      ],
      "name": "grantRole",
      "outputs": [],
      "stateMutability": "nonpayable",
      "type": "function"
    },
    {
      "inputs": [
        {
          "internalType": "address",
          "name": "_address",
          "type": "address"
        }
      ],
      "name": "hasAdminRole",
      "outputs": [
        {
          "internalType": "bool",
          "name": "",
          "type": "bool"
        }
      ],
      "stateMutability": "view",
      "type": "function"
    },
    {
      "inputs": [
        {
          "internalType": "address",
          "name": "_address",
          "type": "address"
        }
      ],
      "name": "hasHolderRole",
      "outputs": [
        {
          "internalType": "bool",
          "name": "",
          "type": "bool"
        }
      ],
      "stateMutability": "view",
      "type": "function"
    },
    {
      "inputs": [
        {
          "internalType": "address",
          "name": "_address",
          "type": "address"
        }
      ],
      "name": "hasMultisigControllerRole",
      "outputs": [
        {
          "internalType": "bool",
          "name": "",
          "type": "bool"
        }
      ],
      "stateMutability": "view",
      "type": "function"
    },
    {
      "inputs": [
        {
          "internalType": "bytes32",
          "name": "role",
          "type": "bytes32"
        },
        {
          "internalType": "address",
          "name": "account",
          "type": "address"
        }
      ],
      "name": "hasRole",
      "outputs": [
        {
          "internalType": "bool",
          "name": "",
          "type": "bool"
        }
      ],
      "stateMutability": "view",
      "type": "function"
    },
    {
      "inputs": [
        {
          "internalType": "address",
          "name": "_address",
          "type": "address"
        }
      ],
      "name": "hasSetterRole",
      "outputs": [
        {
          "internalType": "bool",
          "name": "",
          "type": "bool"
        }
      ],
      "stateMutability": "view",
      "type": "function"
    },
    {
      "inputs": [
        {
          "internalType": "address",
          "name": "_tokenAddress",
          "type": "address"
        }
      ],
      "name": "isTokenAllowed",
      "outputs": [
        {
          "internalType": "bool",
          "name": "",
          "type": "bool"
        }
      ],
      "stateMutability": "view",
      "type": "function"
    },
    {
      "inputs": [
        {
          "internalType": "address",
          "name": "_assetAddress",
          "type": "address"
        },
        {
          "internalType": "address",
          "name": "_tokenAddress",
          "type": "address"
        },
        {
          "internalType": "uint256",
          "name": "units",
          "type": "uint256"
        },
        {
          "internalType": "uint256",
          "name": "pricePerToken",
          "type": "uint256"
        }
      ],
      "name": "listPositionForSale",
      "outputs": [],
      "stateMutability": "nonpayable",
      "type": "function"
    },
    {
      "inputs": [
        {
          "internalType": "bytes32",
          "name": "positionHash",
          "type": "bytes32"
        }
      ],
      "name": "positionHashToAsset",
      "outputs": [
        {
          "internalType": "bytes32",
          "name": "hashId",
          "type": "bytes32"
        },
        {
          "internalType": "address",
          "name": "assetAddress",
          "type": "address"
        },
        {
          "internalType": "address",
          "name": "preferredTokenForSale",
          "type": "address"
        },
        {
          "internalType": "address",
          "name": "owner",
          "type": "address"
        },
        {
          "internalType": "uint256",
          "name": "units",
          "type": "uint256"
        },
        {
          "internalType": "uint256",
          "name": "price",
          "type": "uint256"
        },
        {
          "internalType": "uint256",
          "name": "nonce",
          "type": "uint256"
        }
      ],
      "stateMutability": "view",
      "type": "function"
    },
    {
      "inputs": [
        {
          "internalType": "bytes32",
          "name": "role",
          "type": "bytes32"
        },
        {
          "internalType": "address",
          "name": "callerConfirmation",
          "type": "address"
        }
      ],
      "name": "renounceRole",
      "outputs": [],
      "stateMutability": "nonpayable",
      "type": "function"
    },
    {
      "inputs": [
        {
          "internalType": "bytes32",
          "name": "role",
          "type": "bytes32"
        },
        {
          "internalType": "address",
          "name": "account",
          "type": "address"
        }
      ],
      "name": "revokeRole",
      "outputs": [],
      "stateMutability": "nonpayable",
      "type": "function"
    },
    {
      "inputs": [
        {
          "internalType": "address",
          "name": "_token",
          "type": "address"
        },
        {
          "internalType": "bool",
          "name": "_status",
          "type": "bool"
        }
      ],
      "name": "setAllowedToken",
      "outputs": [],
      "stateMutability": "nonpayable",
      "type": "function"
    },
    {
      "inputs": [
        {
          "internalType": "address",
          "name": "_factoryAddress",
          "type": "address"
        }
      ],
      "name": "setFactoryAddress",
      "outputs": [],
      "stateMutability": "nonpayable",
      "type": "function"
    },
    {
      "inputs": [
        {
          "internalType": "address",
          "name": "_vaultAddress",
          "type": "address"
        }
      ],
      "name": "setVaultAddress",
      "outputs": [],
      "stateMutability": "nonpayable",
      "type": "function"
    },
    {
      "inputs": [
        {
          "internalType": "bytes4",
          "name": "interfaceId",
          "type": "bytes4"
        }
      ],
      "name": "supportsInterface",
      "outputs": [
        {
          "internalType": "bool",
          "name": "",
          "type": "bool"
        }
      ],
      "stateMutability": "view",
      "type": "function"
    }
  ],
  "bytecode": "0x60806040523480156200001157600080fd5b5060405162005afd38038062005afd83398181016040528101906200003791906200038f565b6001600081905550620000717fa49807205ce4d355092ef5a8a18f56e8913cf4a201fbe287825b095693c21775336200012a60201b60201c565b50620000a76000801b7fa49807205ce4d355092ef5a8a18f56e8913cf4a201fbe287825b095693c217756200022e60201b60201c565b620000bc6000801b336200012a60201b60201c565b50620000ef7f67858479390918fec33d19cb364ae4acba6d5c8c3ffb75a05aeab8da02df7e32336200012a60201b60201c565b50620001227f67c578cd78db3528f8923429ffa9ba50e77b19a9b6a4b3e7df3cd1b7895ba995826200012a60201b60201c565b5050620003c1565b60006200013e83836200029260201b60201c565b620002235760016003600085815260200190815260200160002060000160008473ffffffffffffffffffffffffffffffffffffffff1673ffffffffffffffffffffffffffffffffffffffff16815260200190815260200160002060006101000a81548160ff021916908315150217905550620001bf620002fd60201b60201c565b73ffffffffffffffffffffffffffffffffffffffff168273ffffffffffffffffffffffffffffffffffffffff16847f2f8788117e7eff1d82e926ec794901d17c78024a50270940304540a733656f0d60405160405180910390a46001905062000228565b600090505b92915050565b600062000241836200030560201b60201c565b90508160036000858152602001908152602001600020600101819055508181847fbd79b86ffe0ab8e8776151514217cd7cacd52c909f66475c3af44e129f0b00ff60405160405180910390a4505050565b60006003600084815260200190815260200160002060000160008373ffffffffffffffffffffffffffffffffffffffff1673ffffffffffffffffffffffffffffffffffffffff16815260200190815260200160002060009054906101000a900460ff16905092915050565b600033905090565b600060036000838152602001908152602001600020600101549050919050565b600080fd5b600073ffffffffffffffffffffffffffffffffffffffff82169050919050565b600062000357826200032a565b9050919050565b62000369816200034a565b81146200037557600080fd5b50565b60008151905062000389816200035e565b92915050565b600060208284031215620003a857620003a762000325565b5b6000620003b88482850162000378565b91505092915050565b61572c80620003d16000396000f3fe608060405234801561001057600080fd5b50600436106101c45760003560e01c806377d82b98116100f9578063bd17a12711610097578063d547741f11610071578063d547741f14610543578063e60a26fa1461055f578063f82de5491461057d578063f9eaee0d14610599576101c4565b8063bd17a127146104c1578063c395fcb3146104f7578063d325bd5314610527576101c4565b80638aaa2284116100d35780638aaa22841461042757806391d148541461044357806397b6f65e14610473578063a217fddf146104a3576101c4565b806377d82b98146103d157806383c17c55146103ef57806385535cc51461040b576101c4565b806336568abe1161016657806349bf77df1161014057806349bf77df1461034957806365cacaa414610365578063745d47291461038357806375b238fc146103b3576101c4565b806336568abe146102e1578063469ba832146102fd57806347c9912314610319576101c4565b8063248a9ca3116101a2578063248a9ca3146102475780632a6bc2dd146102775780632be529d8146102a75780632f2ff15d146102c5576101c4565b806301ffc9a7146101c95780631e717465146101f95780631eb8931014610229575b600080fd5b6101e360048036038101906101de9190614a32565b6105c9565b6040516101f09190614a7a565b60405180910390f35b610213600480360381019061020e9190614af3565b610643565b6040516102209190614bb0565b60405180910390f35b6102316106ed565b60405161023e9190614beb565b60405180910390f35b610261600480360381019061025c9190614c32565b610711565b60405161026e9190614beb565b60405180910390f35b610291600480360381019061028c9190614af3565b610731565b60405161029e9190614dd3565b60405180910390f35b6102af6108f9565b6040516102bc9190614beb565b60405180910390f35b6102df60048036038101906102da9190614df5565b61091d565b005b6102fb60048036038101906102f69190614df5565b61093f565b005b61031760048036038101906103129190614e61565b6109ba565b005b610333600480360381019061032e9190614af3565b6109db565b6040516103409190614a7a565b60405180910390f35b610363600480360381019061035e9190614eb4565b610a0e565b005b61036d610a2d565b60405161037a9190614f03565b60405180910390f35b61039d60048036038101906103989190614af3565b610a57565b6040516103aa9190614a7a565b60405180910390f35b6103bb610a8a565b6040516103c89190614beb565b60405180910390f35b6103d9610aae565b6040516103e69190614beb565b60405180910390f35b61040960048036038101906104049190614af3565b610ad2565b005b61042560048036038101906104209190614af3565b610e25565b005b610441600480360381019061043c9190614f4a565b611178565b005b61045d60048036038101906104589190614df5565b611372565b60405161046a9190614a7a565b60405180910390f35b61048d60048036038101906104889190614af3565b6113dd565b60405161049a9190614a7a565b60405180910390f35b6104ab611410565b6040516104b89190614beb565b60405180910390f35b6104db60048036038101906104d69190614c32565b611417565b6040516104ee9796959493929190614f99565b60405180910390f35b610511600480360381019061050c9190614af3565b6114b9565b60405161051e9190614a7a565b60405180910390f35b610541600480360381019061053c9190614eb4565b6114ec565b005b61055d60048036038101906105589190614df5565b61150b565b005b61056761152d565b6040516105749190614a7a565b60405180910390f35b61059760048036038101906105929190615008565b611581565b005b6105b360048036038101906105ae9190614af3565b6115a4565b6040516105c09190614a7a565b60405180910390f35b60007f7965db0b000000000000000000000000000000000000000000000000000000007bffffffffffffffffffffffffffffffffffffffffffffffffffffffff1916827bffffffffffffffffffffffffffffffffffffffffffffffffffffffff1916148061063c575061063b826115fa565b5b9050919050565b6060600560009054906101000a900473ffffffffffffffffffffffffffffffffffffffff1673ffffffffffffffffffffffffffffffffffffffff16631e717465836040518263ffffffff1660e01b81526004016106a09190614f03565b600060405180830381865afa1580156106bd573d6000803e3d6000fd5b505050506040513d6000823e3d601f19601f820116820180604052508101906106e69190615195565b9050919050565b7f67c578cd78db3528f8923429ffa9ba50e77b19a9b6a4b3e7df3cd1b7895ba99581565b600060036000838152602001908152602001600020600101549050919050565b6060600160008373ffffffffffffffffffffffffffffffffffffffff1673ffffffffffffffffffffffffffffffffffffffff168152602001908152602001600020805480602002602001604051908101604052809291908181526020016000905b828210156108ee57838290600052602060002090600702016040518060e0016040529081600082015481526020016001820160009054906101000a900473ffffffffffffffffffffffffffffffffffffffff1673ffffffffffffffffffffffffffffffffffffffff1673ffffffffffffffffffffffffffffffffffffffff1681526020016002820160009054906101000a900473ffffffffffffffffffffffffffffffffffffffff1673ffffffffffffffffffffffffffffffffffffffff1673ffffffffffffffffffffffffffffffffffffffff1681526020016003820160009054906101000a900473ffffffffffffffffffffffffffffffffffffffff1673ffffffffffffffffffffffffffffffffffffffff1673ffffffffffffffffffffffffffffffffffffffff168152602001600482015481526020016005820154815260200160068201548152505081526020019060010190610792565b505050509050919050565b7f30571b299dace71c868ba3a8613668ea9ae40385c1be6075cfbe29218583e53681565b61092682610711565b61092f81611664565b6109398383611678565b50505050565b61094761176a565b73ffffffffffffffffffffffffffffffffffffffff168173ffffffffffffffffffffffffffffffffffffffff16146109ab576040517f6697b23200000000000000000000000000000000000000000000000000000000815260040160405180910390fd5b6109b58282611772565b505050565b6109c2611865565b6109ce838333846118ab565b6109d66121b2565b505050565b6000610a077f67c578cd78db3528f8923429ffa9ba50e77b19a9b6a4b3e7df3cd1b7895ba99583611372565b9050919050565b610a16611865565b610a218233836121bc565b610a296121b2565b5050565b6000600460009054906101000a900473ffffffffffffffffffffffffffffffffffffffff16905090565b6000610a837f67858479390918fec33d19cb364ae4acba6d5c8c3ffb75a05aeab8da02df7e3283611372565b9050919050565b7fa49807205ce4d355092ef5a8a18f56e8913cf4a201fbe287825b095693c2177581565b7f67858479390918fec33d19cb364ae4acba6d5c8c3ffb75a05aeab8da02df7e3281565b80600073ffffffffffffffffffffffffffffffffffffffff168173ffffffffffffffffffffffffffffffffffffffff1614156040518060400160405280601d81526020017f41737365742061646472657373206d757374206e6f742062652030783000000081525090610b7b576040517f08c379a0000000000000000000000000000000000000000000000000000000008152600401610b729190614bb0565b60405180910390fd5b50610b8533610a57565b6040518060400160405280601e81526020017f4e6f7420417574686f72697a656420746f207365742066756e6374696f6e000081525090610bfc576040517f08c379a0000000000000000000000000000000000000000000000000000000008152600401610bf39190614bb0565b60405180910390fd5b50600560009054906101000a900473ffffffffffffffffffffffffffffffffffffffff1673ffffffffffffffffffffffffffffffffffffffff168273ffffffffffffffffffffffffffffffffffffffff1614156040518060400160405280601d81526020017f56616c756520616c72656164792068617320746869732073746174757300000081525090610cc6576040517f08c379a0000000000000000000000000000000000000000000000000000000008152600401610cbd9190614bb0565b60405180910390fd5b506000600560009054906101000a900473ffffffffffffffffffffffffffffffffffffffff16905082600560006101000a81548173ffffffffffffffffffffffffffffffffffffffff021916908373ffffffffffffffffffffffffffffffffffffffff1602179055508273ffffffffffffffffffffffffffffffffffffffff16600560009054906101000a900473ffffffffffffffffffffffffffffffffffffffff1673ffffffffffffffffffffffffffffffffffffffff16148015610dda57508073ffffffffffffffffffffffffffffffffffffffff16600560009054906101000a900473ffffffffffffffffffffffffffffffffffffffff1673ffffffffffffffffffffffffffffffffffffffff1614155b610de757610de66151de565b5b7fe9f55cae89b38ece5807aa40c2a72a7c9002bd4cedd1bfaeb48922fda0d3a8268382604051610e1892919061520d565b60405180910390a1505050565b80600073ffffffffffffffffffffffffffffffffffffffff168173ffffffffffffffffffffffffffffffffffffffff1614156040518060400160405280601d81526020017f41737365742061646472657373206d757374206e6f742062652030783000000081525090610ece576040517f08c379a0000000000000000000000000000000000000000000000000000000008152600401610ec59190614bb0565b60405180910390fd5b50610ed833610a57565b6040518060400160405280601e81526020017f4e6f7420417574686f72697a656420746f207365742066756e6374696f6e000081525090610f4f576040517f08c379a0000000000000000000000000000000000000000000000000000000008152600401610f469190614bb0565b60405180910390fd5b50600460009054906101000a900473ffffffffffffffffffffffffffffffffffffffff1673ffffffffffffffffffffffffffffffffffffffff168273ffffffffffffffffffffffffffffffffffffffff1614156040518060400160405280601d81526020017f56616c756520616c72656164792068617320746869732073746174757300000081525090611019576040517f08c379a00000000000000000000000000000000000000000000000000000000081526004016110109190614bb0565b60405180910390fd5b506000600460009054906101000a900473ffffffffffffffffffffffffffffffffffffffff16905082600460006101000a81548173ffffffffffffffffffffffffffffffffffffffff021916908373ffffffffffffffffffffffffffffffffffffffff1602179055508273ffffffffffffffffffffffffffffffffffffffff16600460009054906101000a900473ffffffffffffffffffffffffffffffffffffffff1673ffffffffffffffffffffffffffffffffffffffff1614801561112d57508073ffffffffffffffffffffffffffffffffffffffff16600460009054906101000a900473ffffffffffffffffffffffffffffffffffffffff1673ffffffffffffffffffffffffffffffffffffffff1614155b61113a576111396151de565b5b7fe9f55cae89b38ece5807aa40c2a72a7c9002bd4cedd1bfaeb48922fda0d3a826838260405161116b92919061520d565b60405180910390a1505050565b600760008373ffffffffffffffffffffffffffffffffffffffff1673ffffffffffffffffffffffffffffffffffffffff16815260200190815260200160002060009054906101000a900460ff168180151582151514156040518060400160405280601d81526020017f56616c756520616c72656164792068617320746869732073746174757300000081525090611245576040517f08c379a000000000000000000000000000000000000000000000000000000000815260040161123c9190614bb0565b60405180910390fd5b5061124f33610a57565b6040518060400160405280601e81526020017f4e6f7420417574686f72697a656420746f207365742066756e6374696f6e0000815250906112c6576040517f08c379a00000000000000000000000000000000000000000000000000000000081526004016112bd9190614bb0565b60405180910390fd5b5082600760008673ffffffffffffffffffffffffffffffffffffffff1673ffffffffffffffffffffffffffffffffffffffff16815260200190815260200160002060006101000a81548160ff0219169083151502179055508373ffffffffffffffffffffffffffffffffffffffff167f3a7d4b919c66e25bb96b646b1fa5df47aca5411773bfe1829fc8e86ab7006e6a846040516113649190614a7a565b60405180910390a250505050565b60006003600084815260200190815260200160002060000160008373ffffffffffffffffffffffffffffffffffffffff1673ffffffffffffffffffffffffffffffffffffffff16815260200190815260200160002060009054906101000a900460ff16905092915050565b60006114097f30571b299dace71c868ba3a8613668ea9ae40385c1be6075cfbe29218583e53683611372565b9050919050565b6000801b81565b60026020528060005260406000206000915090508060000154908060010160009054906101000a900473ffffffffffffffffffffffffffffffffffffffff16908060020160009054906101000a900473ffffffffffffffffffffffffffffffffffffffff16908060030160009054906101000a900473ffffffffffffffffffffffffffffffffffffffff16908060040154908060050154908060060154905087565b60006114e57fa49807205ce4d355092ef5a8a18f56e8913cf4a201fbe287825b095693c2177583611372565b9050919050565b6114f4611865565b6114ff823383612d5c565b6115076121b2565b5050565b61151482610711565b61151d81611664565b6115278383611772565b50505050565b6000600960003373ffffffffffffffffffffffffffffffffffffffff1673ffffffffffffffffffffffffffffffffffffffff16815260200190815260200160002060009054906101000a900460ff16905090565b611589611865565b6115968484338585613a85565b61159e6121b2565b50505050565b6000600760008373ffffffffffffffffffffffffffffffffffffffff1673ffffffffffffffffffffffffffffffffffffffff16815260200190815260200160002060009054906101000a900460ff169050919050565b60007f01ffc9a7000000000000000000000000000000000000000000000000000000007bffffffffffffffffffffffffffffffffffffffffffffffffffffffff1916827bffffffffffffffffffffffffffffffffffffffffffffffffffffffff1916149050919050565b6116758161167061176a565b614575565b50565b60006116848383611372565b61175f5760016003600085815260200190815260200160002060000160008473ffffffffffffffffffffffffffffffffffffffff1673ffffffffffffffffffffffffffffffffffffffff16815260200190815260200160002060006101000a81548160ff0219169083151502179055506116fc61176a565b73ffffffffffffffffffffffffffffffffffffffff168273ffffffffffffffffffffffffffffffffffffffff16847f2f8788117e7eff1d82e926ec794901d17c78024a50270940304540a733656f0d60405160405180910390a460019050611764565b600090505b92915050565b600033905090565b600061177e8383611372565b1561185a5760006003600085815260200190815260200160002060000160008473ffffffffffffffffffffffffffffffffffffffff1673ffffffffffffffffffffffffffffffffffffffff16815260200190815260200160002060006101000a81548160ff0219169083151502179055506117f761176a565b73ffffffffffffffffffffffffffffffffffffffff168273ffffffffffffffffffffffffffffffffffffffff16847ff6391f5c32d9c69d2a47ea670b442974b53935d1edc7fd64eb21e047a839171b60405160405180910390a46001905061185f565b600090505b92915050565b6002600054036118a1576040517f3ee5aeb500000000000000000000000000000000000000000000000000000000815260040160405180910390fd5b6002600081905550565b600960008573ffffffffffffffffffffffffffffffffffffffff1673ffffffffffffffffffffffffffffffffffffffff16815260200190815260200160002060009054906101000a900460ff16156040518060400160405280601381526020017f506f736974696f6e20686173206578697465640000000000000000000000000081525090611970576040517f08c379a00000000000000000000000000000000000000000000000000000000081526004016119679190614bb0565b60405180910390fd5b50600760008473ffffffffffffffffffffffffffffffffffffffff1673ffffffffffffffffffffffffffffffffffffffff16815260200190815260200160002060009054906101000a900460ff166040518060400160405280601181526020017f546f6b656e206e6f7420616c6c6f77656400000000000000000000000000000081525090611a35576040517f08c379a0000000000000000000000000000000000000000000000000000000008152600401611a2c9190614bb0565b60405180910390fd5b50600073ffffffffffffffffffffffffffffffffffffffff16600460009054906101000a900473ffffffffffffffffffffffffffffffffffffffff1673ffffffffffffffffffffffffffffffffffffffff1614156040518060400160405280601581526020017f5661756c742061646472657373206e6f7420736574000000000000000000000081525090611b00576040517f08c379a0000000000000000000000000000000000000000000000000000000008152600401611af79190614bb0565b60405180910390fd5b50600081116040518060400160405280601c81526020017f556e697473206d7573742062652067726561746572207468616e20300000000081525090611b7c576040517f08c379a0000000000000000000000000000000000000000000000000000000008152600401611b739190614bb0565b60405180910390fd5b50600073ffffffffffffffffffffffffffffffffffffffff168273ffffffffffffffffffffffffffffffffffffffff1614156040518060400160405280601d81526020017f41737365742061646472657373206d757374206e6f742062652030783000000081525090611c25576040517f08c379a0000000000000000000000000000000000000000000000000000000008152600401611c1c9190614bb0565b60405180910390fd5b506000600560009054906101000a900473ffffffffffffffffffffffffffffffffffffffff1673ffffffffffffffffffffffffffffffffffffffff16631e717465866040518263ffffffff1660e01b8152600401611c839190614f03565b600060405180830381865afa158015611ca0573d6000803e3d6000fd5b505050506040513d6000823e3d601f19601f82011682018060405250810190611cc99190615195565b905060008151116040518060400160405280601481526020017f417373657420646f6573206e6f7420657869737400000000000000000000000081525090611d47576040517f08c379a0000000000000000000000000000000000000000000000000000000008152600401611d3e9190614bb0565b60405180910390fd5b50600084905060008173ffffffffffffffffffffffffffffffffffffffff166370a08231866040518263ffffffff1660e01b8152600401611d889190614f03565b602060405180830381865afa158015611da5573d6000803e3d6000fd5b505050506040513d601f19601f82011682018060405250810190611dc9919061524b565b905060008273ffffffffffffffffffffffffffffffffffffffff166370a08231600460009054906101000a900473ffffffffffffffffffffffffffffffffffffffff166040518263ffffffff1660e01b8152600401611e289190614f03565b602060405180830381865afa158015611e45573d6000803e3d6000fd5b505050506040513d601f19601f82011682018060405250810190611e69919061524b565b9050611eba86600460009054906101000a900473ffffffffffffffffffffffffffffffffffffffff16878673ffffffffffffffffffffffffffffffffffffffff166145c6909392919063ffffffff16565b60008890508873ffffffffffffffffffffffffffffffffffffffff166340c10f1988886040518363ffffffff1660e01b8152600401611efa929190615278565b600060405180830381600087803b158015611f1457600080fd5b505af1158015611f28573d6000803e3d6000fd5b505050508583611f3891906152d0565b8473ffffffffffffffffffffffffffffffffffffffff166370a08231896040518263ffffffff1660e01b8152600401611f719190614f03565b602060405180830381865afa158015611f8e573d6000803e3d6000fd5b505050506040513d601f19601f82011682018060405250810190611fb2919061524b565b14611fc057611fbf6151de565b5b8582611fcc9190615304565b8473ffffffffffffffffffffffffffffffffffffffff166370a08231600460009054906101000a900473ffffffffffffffffffffffffffffffffffffffff166040518263ffffffff1660e01b81526004016120279190614f03565b602060405180830381865afa158015612044573d6000803e3d6000fd5b505050506040513d601f19601f82011682018060405250810190612068919061524b565b14612076576120756151de565b5b858173ffffffffffffffffffffffffffffffffffffffff166370a08231896040518263ffffffff1660e01b81526004016120b09190614f03565b602060405180830381865afa1580156120cd573d6000803e3d6000fd5b505050506040513d601f19601f820116820180604052508101906120f1919061524b565b1015612100576120ff6151de565b5b61212a7f30571b299dace71c868ba3a8613668ea9ae40385c1be6075cfbe29218583e53688611678565b508673ffffffffffffffffffffffffffffffffffffffff168873ffffffffffffffffffffffffffffffffffffffff168a73ffffffffffffffffffffffffffffffffffffffff167f7acfd83c23fe8bf1b54014cdafc60264444b8a2b5167c2c842c771e3ea75ad7d8960405161219f9190615338565b60405180910390a4505050505050505050565b6001600081905550565b6000600260008581526020019081526020016000209050600073ffffffffffffffffffffffffffffffffffffffff168160010160009054906101000a900473ffffffffffffffffffffffffffffffffffffffff1673ffffffffffffffffffffffffffffffffffffffff1614156040518060400160405280601481526020017f417373657420646f6573206e6f742065786973740000000000000000000000008152509061229f576040517f08c379a00000000000000000000000000000000000000000000000000000000081526004016122969190614bb0565b60405180910390fd5b5060006127108260050154846122b59190615353565b6122bf91906153c4565b905060008260010160009054906101000a900473ffffffffffffffffffffffffffffffffffffffff16905060008360020160009054906101000a900473ffffffffffffffffffffffffffffffffffffffff169050828173ffffffffffffffffffffffffffffffffffffffff166370a08231886040518263ffffffff1660e01b815260040161234d9190614f03565b602060405180830381865afa15801561236a573d6000803e3d6000fd5b505050506040513d601f19601f8201168201806040525081019061238e919061524b565b10156040518060400160405280601481526020017f496e73756666696369656e742062616c616e636500000000000000000000000081525090612407576040517f08c379a00000000000000000000000000000000000000000000000000000000081526004016123fe9190614bb0565b60405180910390fd5b506000846040518060e0016040529081600082015481526020016001820160009054906101000a900473ffffffffffffffffffffffffffffffffffffffff1673ffffffffffffffffffffffffffffffffffffffff1673ffffffffffffffffffffffffffffffffffffffff1681526020016002820160009054906101000a900473ffffffffffffffffffffffffffffffffffffffff1673ffffffffffffffffffffffffffffffffffffffff1673ffffffffffffffffffffffffffffffffffffffff1681526020016003820160009054906101000a900473ffffffffffffffffffffffffffffffffffffffff1673ffffffffffffffffffffffffffffffffffffffff1673ffffffffffffffffffffffffffffffffffffffff1681526020016004820154815260200160058201548152602001600682015481525050905085856004015403612b555760005b600160008760030160009054906101000a900473ffffffffffffffffffffffffffffffffffffffff1673ffffffffffffffffffffffffffffffffffffffff1673ffffffffffffffffffffffffffffffffffffffff16815260200190815260200160002080549050811015612a555788600160008860030160009054906101000a900473ffffffffffffffffffffffffffffffffffffffff1673ffffffffffffffffffffffffffffffffffffffff1673ffffffffffffffffffffffffffffffffffffffff1681526020019081526020016000208281548110612634576126336153f5565b5b90600052602060002090600702016000015403612a4857600160008760030160009054906101000a900473ffffffffffffffffffffffffffffffffffffffff1673ffffffffffffffffffffffffffffffffffffffff1673ffffffffffffffffffffffffffffffffffffffff16815260200190815260200160002060018060008960030160009054906101000a900473ffffffffffffffffffffffffffffffffffffffff1673ffffffffffffffffffffffffffffffffffffffff1673ffffffffffffffffffffffffffffffffffffffff1681526020019081526020016000208054905061272091906152d0565b81548110612731576127306153f5565b5b9060005260206000209060070201600160008860030160009054906101000a900473ffffffffffffffffffffffffffffffffffffffff1673ffffffffffffffffffffffffffffffffffffffff1673ffffffffffffffffffffffffffffffffffffffff16815260200190815260200160002082815481106127b4576127b36153f5565b5b9060005260206000209060070201600082015481600001556001820160009054906101000a900473ffffffffffffffffffffffffffffffffffffffff168160010160006101000a81548173ffffffffffffffffffffffffffffffffffffffff021916908373ffffffffffffffffffffffffffffffffffffffff1602179055506002820160009054906101000a900473ffffffffffffffffffffffffffffffffffffffff168160020160006101000a81548173ffffffffffffffffffffffffffffffffffffffff021916908373ffffffffffffffffffffffffffffffffffffffff1602179055506003820160009054906101000a900473ffffffffffffffffffffffffffffffffffffffff168160030160006101000a81548173ffffffffffffffffffffffffffffffffffffffff021916908373ffffffffffffffffffffffffffffffffffffffff160217905550600482015481600401556005820154816005015560068201548160060155905050600160008760030160009054906101000a900473ffffffffffffffffffffffffffffffffffffffff1673ffffffffffffffffffffffffffffffffffffffff1673ffffffffffffffffffffffffffffffffffffffff16815260200190815260200160002080548061299557612994615424565b5b60019003818190600052602060002090600702016000808201600090556001820160006101000a81549073ffffffffffffffffffffffffffffffffffffffff02191690556002820160006101000a81549073ffffffffffffffffffffffffffffffffffffffff02191690556003820160006101000a81549073ffffffffffffffffffffffffffffffffffffffff021916905560048201600090556005820160009055600682016000905550509055612a55565b8080600101915050612550565b50600260008981526020019081526020016000206000808201600090556001820160006101000a81549073ffffffffffffffffffffffffffffffffffffffff02191690556002820160006101000a81549073ffffffffffffffffffffffffffffffffffffffff02191690556003820160006101000a81549073ffffffffffffffffffffffffffffffffffffffff02191690556004820160009055600582016000905560068201600090555050612b4f7f30571b299dace71c868ba3a8613668ea9ae40385c1be6075cfbe29218583e5368660030160009054906101000a900473ffffffffffffffffffffffffffffffffffffffff16611772565b50612b7c565b612b5f8587614648565b612b7b600260008a815260200190815260200160002087614648565b5b612bad878260600151868573ffffffffffffffffffffffffffffffffffffffff166145c6909392919063ffffffff16565b612bd887878573ffffffffffffffffffffffffffffffffffffffff166146f99092919063ffffffff16565b60008373ffffffffffffffffffffffffffffffffffffffff166370a08231896040518263ffffffff1660e01b8152600401612c139190614f03565b602060405180830381865afa158015612c30573d6000803e3d6000fd5b505050506040513d601f19601f82011682018060405250810190612c54919061524b565b1115612c8657612c847f30571b299dace71c868ba3a8613668ea9ae40385c1be6075cfbe29218583e53688611678565b505b8673ffffffffffffffffffffffffffffffffffffffff168560020160009054906101000a900473ffffffffffffffffffffffffffffffffffffffff1673ffffffffffffffffffffffffffffffffffffffff168660010160009054906101000a900473ffffffffffffffffffffffffffffffffffffffff1673ffffffffffffffffffffffffffffffffffffffff167f6bdff18d93d68ac5e2fd8bf714dd96b459007504c4d247e51bf6bb975ec6b2a68989600501548d604051612d4a93929190615453565b60405180910390a45050505050505050565b6000600260008581526020019081526020016000209050600073ffffffffffffffffffffffffffffffffffffffff168160010160009054906101000a900473ffffffffffffffffffffffffffffffffffffffff1673ffffffffffffffffffffffffffffffffffffffff1614156040518060400160405280601481526020017f417373657420646f6573206e6f7420657869737400000000000000000000000081525090612e3f576040517f08c379a0000000000000000000000000000000000000000000000000000000008152600401612e369190614bb0565b60405180910390fd5b508273ffffffffffffffffffffffffffffffffffffffff168160030160009054906101000a900473ffffffffffffffffffffffffffffffffffffffff1673ffffffffffffffffffffffffffffffffffffffff16146040518060400160405280601581526020017f4f6e6c79206f776e65722063616e2064656c697374000000000000000000000081525090612f0a576040517f08c379a0000000000000000000000000000000000000000000000000000000008152600401612f019190614bb0565b60405180910390fd5b5060008160010160009054906101000a900473ffffffffffffffffffffffffffffffffffffffff169050828173ffffffffffffffffffffffffffffffffffffffff166370a08231306040518263ffffffff1660e01b8152600401612f6e9190614f03565b602060405180830381865afa158015612f8b573d6000803e3d6000fd5b505050506040513d601f19601f82011682018060405250810190612faf919061524b565b10156040518060400160405280601f81526020017f496e73756666696369656e7420616d6f756e7420696e20636f6e74726163740081525090613028576040517f08c379a000000000000000000000000000000000000000000000000000000000815260040161301f9190614bb0565b60405180910390fd5b506000826040518060e0016040529081600082015481526020016001820160009054906101000a900473ffffffffffffffffffffffffffffffffffffffff1673ffffffffffffffffffffffffffffffffffffffff1673ffffffffffffffffffffffffffffffffffffffff1681526020016002820160009054906101000a900473ffffffffffffffffffffffffffffffffffffffff1673ffffffffffffffffffffffffffffffffffffffff1673ffffffffffffffffffffffffffffffffffffffff1681526020016003820160009054906101000a900473ffffffffffffffffffffffffffffffffffffffff1673ffffffffffffffffffffffffffffffffffffffff1673ffffffffffffffffffffffffffffffffffffffff16815260200160048201548152602001600582015481526020016006820154815250509050838360040154036137765760005b600160008560030160009054906101000a900473ffffffffffffffffffffffffffffffffffffffff1673ffffffffffffffffffffffffffffffffffffffff1673ffffffffffffffffffffffffffffffffffffffff168152602001908152602001600020805490508110156136765786600160008660030160009054906101000a900473ffffffffffffffffffffffffffffffffffffffff1673ffffffffffffffffffffffffffffffffffffffff1673ffffffffffffffffffffffffffffffffffffffff1681526020019081526020016000208281548110613255576132546153f5565b5b9060005260206000209060070201600001540361366957600160008560030160009054906101000a900473ffffffffffffffffffffffffffffffffffffffff1673ffffffffffffffffffffffffffffffffffffffff1673ffffffffffffffffffffffffffffffffffffffff16815260200190815260200160002060018060008760030160009054906101000a900473ffffffffffffffffffffffffffffffffffffffff1673ffffffffffffffffffffffffffffffffffffffff1673ffffffffffffffffffffffffffffffffffffffff1681526020019081526020016000208054905061334191906152d0565b81548110613352576133516153f5565b5b9060005260206000209060070201600160008660030160009054906101000a900473ffffffffffffffffffffffffffffffffffffffff1673ffffffffffffffffffffffffffffffffffffffff1673ffffffffffffffffffffffffffffffffffffffff16815260200190815260200160002082815481106133d5576133d46153f5565b5b9060005260206000209060070201600082015481600001556001820160009054906101000a900473ffffffffffffffffffffffffffffffffffffffff168160010160006101000a81548173ffffffffffffffffffffffffffffffffffffffff021916908373ffffffffffffffffffffffffffffffffffffffff1602179055506002820160009054906101000a900473ffffffffffffffffffffffffffffffffffffffff168160020160006101000a81548173ffffffffffffffffffffffffffffffffffffffff021916908373ffffffffffffffffffffffffffffffffffffffff1602179055506003820160009054906101000a900473ffffffffffffffffffffffffffffffffffffffff168160030160006101000a81548173ffffffffffffffffffffffffffffffffffffffff021916908373ffffffffffffffffffffffffffffffffffffffff160217905550600482015481600401556005820154816005015560068201548160060155905050600160008560030160009054906101000a900473ffffffffffffffffffffffffffffffffffffffff1673ffffffffffffffffffffffffffffffffffffffff1673ffffffffffffffffffffffffffffffffffffffff1681526020019081526020016000208054806135b6576135b5615424565b5b60019003818190600052602060002090600702016000808201600090556001820160006101000a81549073ffffffffffffffffffffffffffffffffffffffff02191690556002820160006101000a81549073ffffffffffffffffffffffffffffffffffffffff02191690556003820160006101000a81549073ffffffffffffffffffffffffffffffffffffffff021916905560048201600090556005820160009055600682016000905550509055613676565b8080600101915050613171565b50600260008781526020019081526020016000206000808201600090556001820160006101000a81549073ffffffffffffffffffffffffffffffffffffffff02191690556002820160006101000a81549073ffffffffffffffffffffffffffffffffffffffff02191690556003820160006101000a81549073ffffffffffffffffffffffffffffffffffffffff021916905560048201600090556005820160009055600682016000905550506137707f30571b299dace71c868ba3a8613668ea9ae40385c1be6075cfbe29218583e5368460030160009054906101000a900473ffffffffffffffffffffffffffffffffffffffff16611772565b5061391e565b6137808385614648565b60005b600160008560030160009054906101000a900473ffffffffffffffffffffffffffffffffffffffff1673ffffffffffffffffffffffffffffffffffffffff1673ffffffffffffffffffffffffffffffffffffffff1681526020019081526020016000208054905081101561391c5786600160008660030160009054906101000a900473ffffffffffffffffffffffffffffffffffffffff1673ffffffffffffffffffffffffffffffffffffffff1673ffffffffffffffffffffffffffffffffffffffff1681526020019081526020016000208281548110613867576138666153f5565b5b9060005260206000209060070201600001540361390f5761390a600160008660030160009054906101000a900473ffffffffffffffffffffffffffffffffffffffff1673ffffffffffffffffffffffffffffffffffffffff1673ffffffffffffffffffffffffffffffffffffffff16815260200190815260200160002082815481106138f6576138f56153f5565b5b906000526020600020906007020186614648565b61391c565b8080600101915050613783565b505b61394985858473ffffffffffffffffffffffffffffffffffffffff166146f99092919063ffffffff16565b60008273ffffffffffffffffffffffffffffffffffffffff166370a08231876040518263ffffffff1660e01b81526004016139849190614f03565b602060405180830381865afa1580156139a1573d6000803e3d6000fd5b505050506040513d601f19601f820116820180604052508101906139c5919061524b565b11156139f7576139f57f30571b299dace71c868ba3a8613668ea9ae40385c1be6075cfbe29218583e53686611678565b505b8473ffffffffffffffffffffffffffffffffffffffff16816040015173ffffffffffffffffffffffffffffffffffffffff16826020015173ffffffffffffffffffffffffffffffffffffffff167fee56213377cbe966fb557c14ff13d84005f682801743189fd63b332f5af2254c878a604051613a7592919061548a565b60405180910390a4505050505050565b600960008673ffffffffffffffffffffffffffffffffffffffff1673ffffffffffffffffffffffffffffffffffffffff16815260200190815260200160002060009054906101000a900460ff16156040518060400160405280601381526020017f506f736974696f6e20686173206578697465640000000000000000000000000081525090613b4a576040517f08c379a0000000000000000000000000000000000000000000000000000000008152600401613b419190614bb0565b60405180910390fd5b50600760008573ffffffffffffffffffffffffffffffffffffffff1673ffffffffffffffffffffffffffffffffffffffff16815260200190815260200160002060009054906101000a900460ff166040518060400160405280601181526020017f546f6b656e206e6f7420616c6c6f77656400000000000000000000000000000081525090613c0f576040517f08c379a0000000000000000000000000000000000000000000000000000000008152600401613c069190614bb0565b60405180910390fd5b50600073ffffffffffffffffffffffffffffffffffffffff168573ffffffffffffffffffffffffffffffffffffffff1614156040518060400160405280601d81526020017f41737365742061646472657373206d757374206e6f742062652030783000000081525090613cb8576040517f08c379a0000000000000000000000000000000000000000000000000000000008152600401613caf9190614bb0565b60405180910390fd5b50600073ffffffffffffffffffffffffffffffffffffffff168473ffffffffffffffffffffffffffffffffffffffff1614156040518060400160405280601d81526020017f41737365742061646472657373206d757374206e6f742062652030783000000081525090613d61576040517f08c379a0000000000000000000000000000000000000000000000000000000008152600401613d589190614bb0565b60405180910390fd5b50600082116040518060400160405280601c81526020017f556e697473206d7573742062652067726561746572207468616e20300000000081525090613ddd576040517f08c379a0000000000000000000000000000000000000000000000000000000008152600401613dd49190614bb0565b60405180910390fd5b506000600560009054906101000a900473ffffffffffffffffffffffffffffffffffffffff1673ffffffffffffffffffffffffffffffffffffffff16631e717465876040518263ffffffff1660e01b8152600401613e3b9190614f03565b600060405180830381865afa158015613e58573d6000803e3d6000fd5b505050506040513d6000823e3d601f19601f82011682018060405250810190613e819190615195565b905060008151116040518060400160405280601481526020017f417373657420646f6573206e6f7420657869737400000000000000000000000081525090613eff576040517f08c379a0000000000000000000000000000000000000000000000000000000008152600401613ef69190614bb0565b60405180910390fd5b506000869050838173ffffffffffffffffffffffffffffffffffffffff166370a08231876040518263ffffffff1660e01b8152600401613f3f9190614f03565b602060405180830381865afa158015613f5c573d6000803e3d6000fd5b505050506040513d601f19601f82011682018060405250810190613f80919061524b565b10156040518060400160405280601c81526020017f556e697473206d7573742062652067726561746572207468616e20300000000081525090613ff9576040517f08c379a0000000000000000000000000000000000000000000000000000000008152600401613ff09190614bb0565b60405180910390fd5b50600087878660065460405160200161401594939291906154b3565b6040516020818303038152906040528051906020012090506001600660008282546140409190615304565b925050819055506040518060e001604052808281526020018973ffffffffffffffffffffffffffffffffffffffff1681526020018873ffffffffffffffffffffffffffffffffffffffff1681526020018773ffffffffffffffffffffffffffffffffffffffff168152602001868152602001858152602001600654815250600260008381526020019081526020016000206000820151816000015560208201518160010160006101000a81548173ffffffffffffffffffffffffffffffffffffffff021916908373ffffffffffffffffffffffffffffffffffffffff16021790555060408201518160020160006101000a81548173ffffffffffffffffffffffffffffffffffffffff021916908373ffffffffffffffffffffffffffffffffffffffff16021790555060608201518160030160006101000a81548173ffffffffffffffffffffffffffffffffffffffff021916908373ffffffffffffffffffffffffffffffffffffffff1602179055506080820151816004015560a0820151816005015560c0820151816006015590505060008273ffffffffffffffffffffffffffffffffffffffff166370a08231886040518263ffffffff1660e01b815260040161420c9190614f03565b602060405180830381865afa158015614229573d6000803e3d6000fd5b505050506040513d601f19601f8201168201806040525081019061424d919061524b565b905061427c8730888673ffffffffffffffffffffffffffffffffffffffff166145c6909392919063ffffffff16565b858161428891906152d0565b8373ffffffffffffffffffffffffffffffffffffffff166370a08231896040518263ffffffff1660e01b81526004016142c19190614f03565b602060405180830381865afa1580156142de573d6000803e3d6000fd5b505050506040513d601f19601f82011682018060405250810190614302919061524b565b146143105761430f6151de565b5b600160008873ffffffffffffffffffffffffffffffffffffffff1673ffffffffffffffffffffffffffffffffffffffff168152602001908152602001600020600260008481526020019081526020016000209080600181540180825580915050600190039060005260206000209060070201600090919091909150600082015481600001556001820160009054906101000a900473ffffffffffffffffffffffffffffffffffffffff168160010160006101000a81548173ffffffffffffffffffffffffffffffffffffffff021916908373ffffffffffffffffffffffffffffffffffffffff1602179055506002820160009054906101000a900473ffffffffffffffffffffffffffffffffffffffff168160020160006101000a81548173ffffffffffffffffffffffffffffffffffffffff021916908373ffffffffffffffffffffffffffffffffffffffff1602179055506003820160009054906101000a900473ffffffffffffffffffffffffffffffffffffffff168160030160006101000a81548173ffffffffffffffffffffffffffffffffffffffff021916908373ffffffffffffffffffffffffffffffffffffffff16021790555060048201548160040155600582015481600501556006820154816006015550508673ffffffffffffffffffffffffffffffffffffffff168873ffffffffffffffffffffffffffffffffffffffff168a73ffffffffffffffffffffffffffffffffffffffff167f479f90291c0aa7c6bca565bdcb7592451db05e6ac572b4a5ece79f48ec4400e089898760405161456293929190615453565b60405180910390a4505050505050505050565b61457f8282611372565b6145c25780826040517fe2517d3f0000000000000000000000000000000000000000000000000000000081526004016145b99291906154f8565b60405180910390fd5b5050565b614642848573ffffffffffffffffffffffffffffffffffffffff166323b872dd8686866040516024016145fb93929190615521565b604051602081830303815290604052915060e01b6020820180517bffffffffffffffffffffffffffffffffffffffffffffffffffffffff8381831617835250505050614778565b50505050565b6000811161468b576040517f08c379a0000000000000000000000000000000000000000000000000000000008152600401614682906155ca565b60405180910390fd5b600081836004015461469d91906152d0565b116146dd576040517f08c379a00000000000000000000000000000000000000000000000000000000081526004016146d490615636565b60405180910390fd5b8082600401546146ed91906152d0565b82600401819055505050565b614773838473ffffffffffffffffffffffffffffffffffffffff1663a9059cbb858560405160240161472c929190615278565b604051602081830303815290604052915060e01b6020820180517bffffffffffffffffffffffffffffffffffffffffffffffffffffffff8381831617835250505050614778565b505050565b60006147a3828473ffffffffffffffffffffffffffffffffffffffff1661480f90919063ffffffff16565b905060008151141580156147c85750808060200190518101906147c6919061566b565b155b1561480a57826040517f5274afe70000000000000000000000000000000000000000000000000000000081526004016148019190614f03565b60405180910390fd5b505050565b606061481d83836000614825565b905092915050565b60608147101561486c57306040517fcd7860590000000000000000000000000000000000000000000000000000000081526004016148639190614f03565b60405180910390fd5b6000808573ffffffffffffffffffffffffffffffffffffffff16848660405161489591906156df565b60006040518083038185875af1925050503d80600081146148d2576040519150601f19603f3d011682016040523d82523d6000602084013e6148d7565b606091505b50915091506148e78683836148f2565b925050509392505050565b6060826149075761490282614981565b614979565b6000825114801561492f575060008473ffffffffffffffffffffffffffffffffffffffff163b145b1561497157836040517f9996b3150000000000000000000000000000000000000000000000000000000081526004016149689190614f03565b60405180910390fd5b81905061497a565b5b9392505050565b6000815111156149945780518082602001fd5b6040517f1425ea4200000000000000000000000000000000000000000000000000000000815260040160405180910390fd5b6000604051905090565b600080fd5b600080fd5b60007fffffffff0000000000000000000000000000000000000000000000000000000082169050919050565b614a0f816149da565b8114614a1a57600080fd5b50565b600081359050614a2c81614a06565b92915050565b600060208284031215614a4857614a476149d0565b5b6000614a5684828501614a1d565b91505092915050565b60008115159050919050565b614a7481614a5f565b82525050565b6000602082019050614a8f6000830184614a6b565b92915050565b600073ffffffffffffffffffffffffffffffffffffffff82169050919050565b6000614ac082614a95565b9050919050565b614ad081614ab5565b8114614adb57600080fd5b50565b600081359050614aed81614ac7565b92915050565b600060208284031215614b0957614b086149d0565b5b6000614b1784828501614ade565b91505092915050565b600081519050919050565b600082825260208201905092915050565b60005b83811015614b5a578082015181840152602081019050614b3f565b60008484015250505050565b6000601f19601f8301169050919050565b6000614b8282614b20565b614b8c8185614b2b565b9350614b9c818560208601614b3c565b614ba581614b66565b840191505092915050565b60006020820190508181036000830152614bca8184614b77565b905092915050565b6000819050919050565b614be581614bd2565b82525050565b6000602082019050614c006000830184614bdc565b92915050565b614c0f81614bd2565b8114614c1a57600080fd5b50565b600081359050614c2c81614c06565b92915050565b600060208284031215614c4857614c476149d0565b5b6000614c5684828501614c1d565b91505092915050565b600081519050919050565b600082825260208201905092915050565b6000819050602082019050919050565b614c9481614bd2565b82525050565b614ca381614ab5565b82525050565b6000819050919050565b614cbc81614ca9565b82525050565b60e082016000820151614cd86000850182614c8b565b506020820151614ceb6020850182614c9a565b506040820151614cfe6040850182614c9a565b506060820151614d116060850182614c9a565b506080820151614d246080850182614cb3565b5060a0820151614d3760a0850182614cb3565b5060c0820151614d4a60c0850182614cb3565b50505050565b6000614d5c8383614cc2565b60e08301905092915050565b6000602082019050919050565b6000614d8082614c5f565b614d8a8185614c6a565b9350614d9583614c7b565b8060005b83811015614dc6578151614dad8882614d50565b9750614db883614d68565b925050600181019050614d99565b5085935050505092915050565b60006020820190508181036000830152614ded8184614d75565b905092915050565b60008060408385031215614e0c57614e0b6149d0565b5b6000614e1a85828601614c1d565b9250506020614e2b85828601614ade565b9150509250929050565b614e3e81614ca9565b8114614e4957600080fd5b50565b600081359050614e5b81614e35565b92915050565b600080600060608486031215614e7a57614e796149d0565b5b6000614e8886828701614ade565b9350506020614e9986828701614ade565b9250506040614eaa86828701614e4c565b9150509250925092565b60008060408385031215614ecb57614eca6149d0565b5b6000614ed985828601614c1d565b9250506020614eea85828601614e4c565b9150509250929050565b614efd81614ab5565b82525050565b6000602082019050614f186000830184614ef4565b92915050565b614f2781614a5f565b8114614f3257600080fd5b50565b600081359050614f4481614f1e565b92915050565b60008060408385031215614f6157614f606149d0565b5b6000614f6f85828601614ade565b9250506020614f8085828601614f35565b9150509250929050565b614f9381614ca9565b82525050565b600060e082019050614fae600083018a614bdc565b614fbb6020830189614ef4565b614fc86040830188614ef4565b614fd56060830187614ef4565b614fe26080830186614f8a565b614fef60a0830185614f8a565b614ffc60c0830184614f8a565b98975050505050505050565b60008060008060808587031215615022576150216149d0565b5b600061503087828801614ade565b945050602061504187828801614ade565b935050604061505287828801614e4c565b925050606061506387828801614e4c565b91505092959194509250565b600080fd5b600080fd5b7f4e487b7100000000000000000000000000000000000000000000000000000000600052604160045260246000fd5b6150b182614b66565b810181811067ffffffffffffffff821117156150d0576150cf615079565b5b80604052505050565b60006150e36149c6565b90506150ef82826150a8565b919050565b600067ffffffffffffffff82111561510f5761510e615079565b5b61511882614b66565b9050602081019050919050565b6000615138615133846150f4565b6150d9565b90508281526020810184848401111561515457615153615074565b5b61515f848285614b3c565b509392505050565b600082601f83011261517c5761517b61506f565b5b815161518c848260208601615125565b91505092915050565b6000602082840312156151ab576151aa6149d0565b5b600082015167ffffffffffffffff8111156151c9576151c86149d5565b5b6151d584828501615167565b91505092915050565b7f4e487b7100000000000000000000000000000000000000000000000000000000600052600160045260246000fd5b60006040820190506152226000830185614ef4565b61522f6020830184614ef4565b9392505050565b60008151905061524581614e35565b92915050565b600060208284031215615261576152606149d0565b5b600061526f84828501615236565b91505092915050565b600060408201905061528d6000830185614ef4565b61529a6020830184614f8a565b9392505050565b7f4e487b7100000000000000000000000000000000000000000000000000000000600052601160045260246000fd5b60006152db82614ca9565b91506152e683614ca9565b92508282039050818111156152fe576152fd6152a1565b5b92915050565b600061530f82614ca9565b915061531a83614ca9565b9250828201905080821115615332576153316152a1565b5b92915050565b600060208201905061534d6000830184614f8a565b92915050565b600061535e82614ca9565b915061536983614ca9565b925082820261537781614ca9565b9150828204841483151761538e5761538d6152a1565b5b5092915050565b7f4e487b7100000000000000000000000000000000000000000000000000000000600052601260045260246000fd5b60006153cf82614ca9565b91506153da83614ca9565b9250826153ea576153e9615395565b5b828204905092915050565b7f4e487b7100000000000000000000000000000000000000000000000000000000600052603260045260246000fd5b7f4e487b7100000000000000000000000000000000000000000000000000000000600052603160045260246000fd5b60006060820190506154686000830186614f8a565b6154756020830185614f8a565b6154826040830184614bdc565b949350505050565b600060408201905061549f6000830185614f8a565b6154ac6020830184614bdc565b9392505050565b60006080820190506154c86000830187614ef4565b6154d56020830186614ef4565b6154e26040830185614f8a565b6154ef6060830184614f8a565b95945050505050565b600060408201905061550d6000830185614ef4565b61551a6020830184614bdc565b9392505050565b60006060820190506155366000830186614ef4565b6155436020830185614ef4565b6155506040830184614f8a565b949350505050565b7f537472756374733a20556e6974732073686f756c64206265206772656174657260008201527f207468616e203000000000000000000000000000000000000000000000000000602082015250565b60006155b4602783614b2b565b91506155bf82615558565b604082019050919050565b600060208201905081810360008301526155e3816155a7565b9050919050565b7f537472756374733a2052656475636520756e6974732100000000000000000000600082015250565b6000615620601683614b2b565b915061562b826155ea565b602082019050919050565b6000602082019050818103600083015261564f81615613565b9050919050565b60008151905061566581614f1e565b92915050565b600060208284031215615681576156806149d0565b5b600061568f84828501615656565b91505092915050565b600081519050919050565b600081905092915050565b60006156b982615698565b6156c381856156a3565b93506156d3818560208601614b3c565b80840191505092915050565b60006156eb82846156ae565b91508190509291505056fea26469706673582212203b637aba44ac688bde816eeff487497f61f5e9508978f1f062c73a64f93767f164736f6c63430008180033",
  "linkReferences": {},
  "deployedLinkReferences": {}
}