{
  "_format": "hh-sol-artifact-1",
  "contractName": "AssetFactory",
  "sourceName": "contracts/AssetFactory.sol",
  "abi": [
    {
      "inputs": [],
      "stateMutability": "nonpayable",
      "type": "constructor"
    },
    {
      "inputs": [],
      "name": "AccessControlBadConfirmation",
      "type": "error"
    },
    {
      "inputs": [
        {
          "internalType": "address",
          "name": "account",
          "type": "address"
        },
        {
          "internalType": "bytes32",
          "name": "neededRole",
          "type": "bytes32"
        }
      ],
      "name": "AccessControlUnauthorizedAccount",
      "type": "error"
    },
    {
      "inputs": [],
      "name": "ReentrancyGuardReentrantCall",
      "type": "error"
    },
    {
      "anonymous": false,
      "inputs": [
        {
          "components": [
            {
              "internalType": "uint256",
              "name": "units",
              "type": "uint256"
            },
            {
              "internalType": "address",
              "name": "assetAddress",
              "type": "address"
            },
            {
              "internalType": "string",
              "name": "assetName",
              "type": "string"
            },
            {
              "internalType": "string",
              "name": "assetSymbol",
              "type": "string"
            },
            {
              "internalType": "string",
              "name": "assetUrl",
              "type": "string"
            }
          ],
          "indexed": false,
          "internalType": "struct Structs.Asset",
          "name": "newAsset",
          "type": "tuple"
        }
      ],
      "name": "CreatedNewAsset",
      "type": "event"
    },
    {
      "anonymous": false,
      "inputs": [
        {
          "indexed": true,
          "internalType": "bytes32",
          "name": "role",
          "type": "bytes32"
        },
        {
          "indexed": true,
          "internalType": "bytes32",
          "name": "previousAdminRole",
          "type": "bytes32"
        },
        {
          "indexed": true,
          "internalType": "bytes32",
          "name": "newAdminRole",
          "type": "bytes32"
        }
      ],
      "name": "RoleAdminChanged",
      "type": "event"
    },
    {
      "anonymous": false,
      "inputs": [
        {
          "indexed": true,
          "internalType": "bytes32",
          "name": "role",
          "type": "bytes32"
        },
        {
          "indexed": true,
          "internalType": "address",
          "name": "account",
          "type": "address"
        },
        {
          "indexed": true,
          "internalType": "address",
          "name": "sender",
          "type": "address"
        }
      ],
      "name": "RoleGranted",
      "type": "event"
    },
    {
      "anonymous": false,
      "inputs": [
        {
          "indexed": true,
          "internalType": "bytes32",
          "name": "role",
          "type": "bytes32"
        },
        {
          "indexed": true,
          "internalType": "address",
          "name": "account",
          "type": "address"
        },
        {
          "indexed": true,
          "internalType": "address",
          "name": "sender",
          "type": "address"
        }
      ],
      "name": "RoleRevoked",
      "type": "event"
    },
    {
      "inputs": [],
      "name": "ADMIN_ROLE",
      "outputs": [
        {
          "internalType": "bytes32",
          "name": "",
          "type": "bytes32"
        }
      ],
      "stateMutability": "view",
      "type": "function"
    },
    {
      "inputs": [],
      "name": "DEFAULT_ADMIN_ROLE",
      "outputs": [
        {
          "internalType": "bytes32",
          "name": "",
          "type": "bytes32"
        }
      ],
      "stateMutability": "view",
      "type": "function"
    },
    {
      "inputs": [],
      "name": "HOLDER",
      "outputs": [
        {
          "internalType": "bytes32",
          "name": "",
          "type": "bytes32"
        }
      ],
      "stateMutability": "view",
      "type": "function"
    },
    {
      "inputs": [],
      "name": "MULTISIG_CONTROLLER_ROLE",
      "outputs": [
        {
          "internalType": "bytes32",
          "name": "",
          "type": "bytes32"
        }
      ],
      "stateMutability": "view",
      "type": "function"
    },
    {
      "inputs": [],
      "name": "SETTER_MANAGER_ROLE",
      "outputs": [
        {
          "internalType": "bytes32",
          "name": "",
          "type": "bytes32"
        }
      ],
      "stateMutability": "view",
      "type": "function"
    },
    {
      "inputs": [
        {
          "components": [
            {
              "internalType": "uint256",
              "name": "units",
              "type": "uint256"
            },
            {
              "internalType": "address",
              "name": "assetAddress",
              "type": "address"
            },
            {
              "internalType": "string",
              "name": "assetName",
              "type": "string"
            },
            {
              "internalType": "string",
              "name": "assetSymbol",
              "type": "string"
            },
            {
              "internalType": "string",
              "name": "assetUrl",
              "type": "string"
            }
          ],
          "internalType": "struct Structs.Asset",
          "name": "_asset",
          "type": "tuple"
        }
      ],
      "name": "createNewAsset",
      "outputs": [],
      "stateMutability": "nonpayable",
      "type": "function"
    },
    {
      "inputs": [
        {
          "internalType": "address",
          "name": "_assetAddress",
          "type": "address"
        }
      ],
      "name": "deleteAsset",
      "outputs": [],
      "stateMutability": "nonpayable",
      "type": "function"
    },
    {
      "inputs": [
        {
          "internalType": "address",
          "name": "_assetAddress",
          "type": "address"
        }
      ],
      "name": "getAsset",
      "outputs": [
        {
          "components": [
            {
              "internalType": "uint256",
              "name": "units",
              "type": "uint256"
            },
            {
              "internalType": "address",
              "name": "assetAddress",
              "type": "address"
            },
            {
              "internalType": "string",
              "name": "assetName",
              "type": "string"
            },
            {
              "internalType": "string",
              "name": "assetSymbol",
              "type": "string"
            },
            {
              "internalType": "string",
              "name": "assetUrl",
              "type": "string"
            }
          ],
          "internalType": "struct Structs.Asset",
          "name": "",
          "type": "tuple"
        }
      ],
      "stateMutability": "view",
      "type": "function"
    },
    {
      "inputs": [
        {
          "internalType": "address",
          "name": "_assetAddress",
          "type": "address"
        }
      ],
      "name": "getAssetUrl",
      "outputs": [
        {
          "internalType": "string",
          "name": "",
          "type": "string"
        }
      ],
      "stateMutability": "view",
      "type": "function"
    },
    {
      "inputs": [
        {
          "internalType": "bytes32",
          "name": "role",
          "type": "bytes32"
        }
      ],
      "name": "getRoleAdmin",
      "outputs": [
        {
          "internalType": "bytes32",
          "name": "",
          "type": "bytes32"
        }
      ],
      "stateMutability": "view",
      "type": "function"
    },
    {
      "inputs": [
        {
          "internalType": "bytes32",
          "name": "role",
          "type": "bytes32"
        },
        {
          "internalType": "address",
          "name": "account",
          "type": "address"
        }
      ],
      "name": "grantRole",
      "outputs": [],
      "stateMutability": "nonpayable",
      "type": "function"
    },
    {
      "inputs": [
        {
          "internalType": "address",
          "name": "_address",
          "type": "address"
        }
      ],
      "name": "hasAdminRole",
      "outputs": [
        {
          "internalType": "bool",
          "name": "",
          "type": "bool"
        }
      ],
      "stateMutability": "view",
      "type": "function"
    },
    {
      "inputs": [
        {
          "internalType": "address",
          "name": "_address",
          "type": "address"
        }
      ],
      "name": "hasHolderRole",
      "outputs": [
        {
          "internalType": "bool",
          "name": "",
          "type": "bool"
        }
      ],
      "stateMutability": "view",
      "type": "function"
    },
    {
      "inputs": [
        {
          "internalType": "address",
          "name": "_address",
          "type": "address"
        }
      ],
      "name": "hasMultisigControllerRole",
      "outputs": [
        {
          "internalType": "bool",
          "name": "",
          "type": "bool"
        }
      ],
      "stateMutability": "view",
      "type": "function"
    },
    {
      "inputs": [
        {
          "internalType": "bytes32",
          "name": "role",
          "type": "bytes32"
        },
        {
          "internalType": "address",
          "name": "account",
          "type": "address"
        }
      ],
      "name": "hasRole",
      "outputs": [
        {
          "internalType": "bool",
          "name": "",
          "type": "bool"
        }
      ],
      "stateMutability": "view",
      "type": "function"
    },
    {
      "inputs": [
        {
          "internalType": "address",
          "name": "_address",
          "type": "address"
        }
      ],
      "name": "hasSetterRole",
      "outputs": [
        {
          "internalType": "bool",
          "name": "",
          "type": "bool"
        }
      ],
      "stateMutability": "view",
      "type": "function"
    },
    {
      "inputs": [
        {
          "internalType": "bytes32",
          "name": "role",
          "type": "bytes32"
        },
        {
          "internalType": "address",
          "name": "callerConfirmation",
          "type": "address"
        }
      ],
      "name": "renounceRole",
      "outputs": [],
      "stateMutability": "nonpayable",
      "type": "function"
    },
    {
      "inputs": [
        {
          "internalType": "bytes32",
          "name": "role",
          "type": "bytes32"
        },
        {
          "internalType": "address",
          "name": "account",
          "type": "address"
        }
      ],
      "name": "revokeRole",
      "outputs": [],
      "stateMutability": "nonpayable",
      "type": "function"
    },
    {
      "inputs": [
        {
          "internalType": "bytes4",
          "name": "interfaceId",
          "type": "bytes4"
        }
      ],
      "name": "supportsInterface",
      "outputs": [
        {
          "internalType": "bool",
          "name": "",
          "type": "bool"
        }
      ],
      "stateMutability": "view",
      "type": "function"
    },
    {
      "inputs": [
        {
          "internalType": "address",
          "name": "_assetAddress",
          "type": "address"
        },
        {
          "internalType": "string",
          "name": "_url",
          "type": "string"
        }
      ],
      "name": "updateAssetUrl",
      "outputs": [],
      "stateMutability": "nonpayable",
      "type": "function"
    }
  ],
  "bytecode": "0x60806040523480156200001157600080fd5b5060016000819055506200004c7fa49807205ce4d355092ef5a8a18f56e8913cf4a201fbe287825b095693c2177533620000d160201b60201c565b50620000826000801b7fa49807205ce4d355092ef5a8a18f56e8913cf4a201fbe287825b095693c21775620001d460201b60201c565b620000976000801b33620000d160201b60201c565b50620000ca7f67858479390918fec33d19cb364ae4acba6d5c8c3ffb75a05aeab8da02df7e3233620000d160201b60201c565b50620002cb565b6000620000e583836200023860201b60201c565b620001c957600180600085815260200190815260200160002060000160008473ffffffffffffffffffffffffffffffffffffffff1673ffffffffffffffffffffffffffffffffffffffff16815260200190815260200160002060006101000a81548160ff02191690831515021790555062000165620002a360201b60201c565b73ffffffffffffffffffffffffffffffffffffffff168273ffffffffffffffffffffffffffffffffffffffff16847f2f8788117e7eff1d82e926ec794901d17c78024a50270940304540a733656f0d60405160405180910390a460019050620001ce565b600090505b92915050565b6000620001e783620002ab60201b60201c565b90508160016000858152602001908152602001600020600101819055508181847fbd79b86ffe0ab8e8776151514217cd7cacd52c909f66475c3af44e129f0b00ff60405160405180910390a4505050565b60006001600084815260200190815260200160002060000160008373ffffffffffffffffffffffffffffffffffffffff1673ffffffffffffffffffffffffffffffffffffffff16815260200190815260200160002060009054906101000a900460ff16905092915050565b600033905090565b600060016000838152602001908152602001600020600101549050919050565b61424280620002db6000396000f3fe60806040523480156200001157600080fd5b5060043610620001485760003560e01c8063745d472911620000bd57806397b6f65e116200007b57806397b6f65e14620003cf578063a217fddf1462000405578063c395fcb31462000427578063ceb44eac146200045d578063d547741f146200047d5762000148565b8063745d472914620002ff57806375b238fc146200033557806377d82b98146200035757806391d1485414620003795780639603c82c14620003af5762000148565b80632be529d8116200010b5780632be529d814620002315780632f2ff15d146200025357806330b8b2c6146200027357806336568abe14620002a957806347c9912314620002c95762000148565b806301ffc9a7146200014d57806315e09f3c14620001835780631e71746514620001a35780631eb8931014620001d9578063248a9ca314620001fb575b600080fd5b6200016b600480360381019062000165919062001c9a565b6200049d565b6040516200017a919062001ce9565b60405180910390f35b620001a160048036038101906200019b919062001d6b565b6200051a565b005b620001c16004803603810190620001bb919062001d6b565b62000528565b604051620001d0919062001e37565b60405180910390f35b620001e3620006b7565b604051620001f2919062001e76565b60405180910390f35b62000219600480360381019062000213919062001ec4565b620006db565b60405162000228919062001e76565b60405180910390f35b6200023b620006fb565b6040516200024a919062001e76565b60405180910390f35b6200027160048036038101906200026b919062001ef6565b6200071f565b005b6200029160048036038101906200028b919062001d6b565b62000747565b604051620002a0919062002049565b60405180910390f35b620002c76004803603810190620002c1919062001ef6565b62000a7c565b005b620002e76004803603810190620002e1919062001d6b565b62000afc565b604051620002f6919062001ce9565b60405180910390f35b6200031d600480360381019062000317919062001d6b565b62000b31565b6040516200032c919062001ce9565b60405180910390f35b6200033f62000b66565b6040516200034e919062001e76565b60405180910390f35b6200036162000b8a565b60405162000370919062001e76565b60405180910390f35b62000397600480360381019062000391919062001ef6565b62000bae565b604051620003a6919062001ce9565b60405180910390f35b620003cd6004803603810190620003c7919062002094565b62000c19565b005b620003ed6004803603810190620003e7919062001d6b565b62000c3b565b604051620003fc919062001ce9565b60405180910390f35b6200040f62000c70565b6040516200041e919062001e76565b60405180910390f35b6200044560048036038101906200043f919062001d6b565b62000c77565b60405162000454919062001ce9565b60405180910390f35b6200047b600480360381019062000475919062002153565b62000cac565b005b6200049b600480360381019062000495919062001ef6565b62000cbe565b005b60007f7965db0b000000000000000000000000000000000000000000000000000000007bffffffffffffffffffffffffffffffffffffffffffffffffffffffff1916827bffffffffffffffffffffffffffffffffffffffffffffffffffffffff19161480620005135750620005128262000ce6565b5b9050919050565b620005258162000d50565b50565b6060600073ffffffffffffffffffffffffffffffffffffffff168273ffffffffffffffffffffffffffffffffffffffff1614156040518060400160405280601d81526020017f41737365742061646472657373206d757374206e6f742062652030783000000081525090620005d5576040517f08c379a0000000000000000000000000000000000000000000000000000000008152600401620005cc919062001e37565b60405180910390fd5b50620006b0600860008473ffffffffffffffffffffffffffffffffffffffff1673ffffffffffffffffffffffffffffffffffffffff16815260200190815260200160002080546200062690620021ec565b80601f01602080910402602001604051908101604052809291908181526020018280546200065490620021ec565b8015620006a55780601f106200067957610100808354040283529160200191620006a5565b820191906000526020600020905b8154815290600101906020018083116200068757829003601f168201915b505050505062000f79565b9050919050565b7f67c578cd78db3528f8923429ffa9ba50e77b19a9b6a4b3e7df3cd1b7895ba99581565b600060016000838152602001908152602001600020600101549050919050565b7f30571b299dace71c868ba3a8613668ea9ae40385c1be6075cfbe29218583e53681565b6200072a82620006db565b620007358162000f98565b62000741838362000fb0565b50505050565b6200075162001b2b565b600073ffffffffffffffffffffffffffffffffffffffff168273ffffffffffffffffffffffffffffffffffffffff1614156040518060400160405280601d81526020017f41737365742061646472657373206d757374206e6f742062652030783000000081525090620007fc576040517f08c379a0000000000000000000000000000000000000000000000000000000008152600401620007f3919062001e37565b60405180910390fd5b50600660008373ffffffffffffffffffffffffffffffffffffffff1673ffffffffffffffffffffffffffffffffffffffff1681526020019081526020016000206040518060a0016040529081600082015481526020016001820160009054906101000a900473ffffffffffffffffffffffffffffffffffffffff1673ffffffffffffffffffffffffffffffffffffffff1673ffffffffffffffffffffffffffffffffffffffff168152602001600282018054620008b990620021ec565b80601f0160208091040260200160405190810160405280929190818152602001828054620008e790620021ec565b8015620009385780601f106200090c5761010080835404028352916020019162000938565b820191906000526020600020905b8154815290600101906020018083116200091a57829003601f168201915b505050505081526020016003820180546200095390620021ec565b80601f01602080910402602001604051908101604052809291908181526020018280546200098190620021ec565b8015620009d25780601f10620009a657610100808354040283529160200191620009d2565b820191906000526020600020905b815481529060010190602001808311620009b457829003601f168201915b50505050508152602001600482018054620009ed90620021ec565b80601f016020809104026020016040519081016040528092919081815260200182805462000a1b90620021ec565b801562000a6c5780601f1062000a405761010080835404028352916020019162000a6c565b820191906000526020600020905b81548152906001019060200180831162000a4e57829003601f168201915b5050505050815250509050919050565b62000a86620010a7565b73ffffffffffffffffffffffffffffffffffffffff168173ffffffffffffffffffffffffffffffffffffffff161462000aeb576040517f6697b23200000000000000000000000000000000000000000000000000000000815260040160405180910390fd5b62000af78282620010af565b505050565b600062000b2a7f67c578cd78db3528f8923429ffa9ba50e77b19a9b6a4b3e7df3cd1b7895ba9958362000bae565b9050919050565b600062000b5f7f67858479390918fec33d19cb364ae4acba6d5c8c3ffb75a05aeab8da02df7e328362000bae565b9050919050565b7fa49807205ce4d355092ef5a8a18f56e8913cf4a201fbe287825b095693c2177581565b7f67858479390918fec33d19cb364ae4acba6d5c8c3ffb75a05aeab8da02df7e3281565b60006001600084815260200190815260200160002060000160008373ffffffffffffffffffffffffffffffffffffffff1673ffffffffffffffffffffffffffffffffffffffff16815260200190815260200160002060009054906101000a900460ff16905092915050565b62000c23620011a8565b62000c2e81620011ef565b62000c38620017f0565b50565b600062000c697f30571b299dace71c868ba3a8613668ea9ae40385c1be6075cfbe29218583e5368362000bae565b9050919050565b6000801b81565b600062000ca57fa49807205ce4d355092ef5a8a18f56e8913cf4a201fbe287825b095693c217758362000bae565b9050919050565b62000cb9838383620017fa565b505050565b62000cc982620006db565b62000cd48162000f98565b62000ce08383620010af565b50505050565b60007f01ffc9a7000000000000000000000000000000000000000000000000000000007bffffffffffffffffffffffffffffffffffffffffffffffffffffffff1916827bffffffffffffffffffffffffffffffffffffffffffffffffffffffff1916149050919050565b62000d5b3362000c77565b6040518060400160405280601f81526020017f4e6f7420417574686f72697a656420746f2063616c6c2066756e6374696f6e008152509062000dd5576040517f08c379a000000000000000000000000000000000000000000000000000000000815260040162000dcc919062001e37565b60405180910390fd5b50600073ffffffffffffffffffffffffffffffffffffffff168173ffffffffffffffffffffffffffffffffffffffff1614156040518060400160405280601d81526020017f41737365742061646472657373206d757374206e6f74206265203078300000008152509062000e81576040517f08c379a000000000000000000000000000000000000000000000000000000000815260040162000e78919062001e37565b60405180910390fd5b50600660008273ffffffffffffffffffffffffffffffffffffffff1673ffffffffffffffffffffffffffffffffffffffff1681526020019081526020016000206000808201600090556001820160006101000a81549073ffffffffffffffffffffffffffffffffffffffff021916905560028201600062000f03919062001b70565b60038201600062000f15919062001b70565b60048201600062000f27919062001b70565b5050600860008273ffffffffffffffffffffffffffffffffffffffff1673ffffffffffffffffffffffffffffffffffffffff168152602001908152602001600020600062000f76919062001bb6565b50565b60608180602001905181019062000f9191906200235e565b9050919050565b62000fad8162000fa7620010a7565b62001aaa565b50565b600062000fbe838362000bae565b6200109c57600180600085815260200190815260200160002060000160008473ffffffffffffffffffffffffffffffffffffffff1673ffffffffffffffffffffffffffffffffffffffff16815260200190815260200160002060006101000a81548160ff02191690831515021790555062001038620010a7565b73ffffffffffffffffffffffffffffffffffffffff168273ffffffffffffffffffffffffffffffffffffffff16847f2f8788117e7eff1d82e926ec794901d17c78024a50270940304540a733656f0d60405160405180910390a460019050620010a1565b600090505b92915050565b600033905090565b6000620010bd838362000bae565b156200119d5760006001600085815260200190815260200160002060000160008473ffffffffffffffffffffffffffffffffffffffff1673ffffffffffffffffffffffffffffffffffffffff16815260200190815260200160002060006101000a81548160ff02191690831515021790555062001139620010a7565b73ffffffffffffffffffffffffffffffffffffffff168273ffffffffffffffffffffffffffffffffffffffff16847ff6391f5c32d9c69d2a47ea670b442974b53935d1edc7fd64eb21e047a839171b60405160405180910390a460019050620011a2565b600090505b92915050565b600260005403620011e5576040517f3ee5aeb500000000000000000000000000000000000000000000000000000000815260040160405180910390fd5b6002600081905550565b620011fa3362000c77565b6040518060400160405280601f81526020017f4e6f7420417574686f72697a656420746f2063616c6c2066756e6374696f6e008152509062001274576040517f08c379a00000000000000000000000000000000000000000000000000000000081526004016200126b919062001e37565b60405180910390fd5b5060008160000135116040518060400160405280601c81526020017f556e697473206d7573742062652067726561746572207468616e20300000000081525090620012f7576040517f08c379a0000000000000000000000000000000000000000000000000000000008152600401620012ee919062001e37565b60405180910390fd5b50600073ffffffffffffffffffffffffffffffffffffffff1681602001602081019062001325919062001d6b565b73ffffffffffffffffffffffffffffffffffffffff16146040518060400160405280601981526020017f41737365742061646472657373206d757374206265203078300000000000000081525090620013b6576040517f08c379a0000000000000000000000000000000000000000000000000000000008152600401620013ad919062001e37565b60405180910390fd5b506000818060400190620013cb9190620023be565b9050116040518060400160405280601c81526020017f4173736574206e616d65206d757374206e6f7420626520656d707479000000008152509062001448576040517f08c379a00000000000000000000000000000000000000000000000000000000081526004016200143f919062001e37565b60405180910390fd5b5060028180606001906200145d9190620023be565b905011801562001481575060048180606001906200147c9190620023be565b905011155b6040518060600160405280602f8152602001620041de602f913990620014df576040517f08c379a0000000000000000000000000000000000000000000000000000000008152600401620014d6919062001e37565b60405180910390fd5b506000818060800190620014f49190620023be565b9050116040518060400160405280601b81526020017f41737365742075726c206d757374206e6f7420626520656d70747900000000008152509062001571576040517f08c379a000000000000000000000000000000000000000000000000000000000815260040162001568919062001e37565b60405180910390fd5b506000818060400190620015869190620023be565b838060600190620015989190620023be565b8560000135604051620015ab9062001bfc565b620015bb9594939291906200247d565b604051809103906000f080158015620015d8573d6000803e3d6000fd5b509050600082620015e9906200267d565b905060006200164c848060800190620016039190620023be565b8080601f016020809104026020016040519081016040528093929190818152602001838380828437600081840152601f19601f8201169050808301925050505050505062001b00565b905082826020019073ffffffffffffffffffffffffffffffffffffffff16908173ffffffffffffffffffffffffffffffffffffffff168152505081600660008573ffffffffffffffffffffffffffffffffffffffff1673ffffffffffffffffffffffffffffffffffffffff1681526020019081526020016000206000820151816000015560208201518160010160006101000a81548173ffffffffffffffffffffffffffffffffffffffff021916908373ffffffffffffffffffffffffffffffffffffffff16021790555060408201518160020190816200172e919062002864565b50606082015181600301908162001746919062002864565b5060808201518160040190816200175e919062002864565b5090505080600860008573ffffffffffffffffffffffffffffffffffffffff1673ffffffffffffffffffffffffffffffffffffffff1681526020019081526020016000209081620017b09190620029bb565b507f324a21176e561a1314c134bd9dab50b104a75e5c9a297b49f7c88220f565d05182604051620017e2919062002049565b60405180910390a150505050565b6001600081905550565b620018053362000c77565b6040518060400160405280601f81526020017f4e6f7420417574686f72697a656420746f2063616c6c2066756e6374696f6e00815250906200187f576040517f08c379a000000000000000000000000000000000000000000000000000000000815260040162001876919062001e37565b60405180910390fd5b50600073ffffffffffffffffffffffffffffffffffffffff168373ffffffffffffffffffffffffffffffffffffffff1614156040518060400160405280601d81526020017f41737365742061646472657373206d757374206e6f7420626520307830000000815250906200192b576040517f08c379a000000000000000000000000000000000000000000000000000000000815260040162001922919062001e37565b60405180910390fd5b50600082829050116040518060400160405280601b81526020017f41737365742075726c206d757374206e6f7420626520656d707479000000000081525090620019ad576040517f08c379a0000000000000000000000000000000000000000000000000000000008152600401620019a4919062001e37565b60405180910390fd5b506000600660008573ffffffffffffffffffffffffffffffffffffffff1673ffffffffffffffffffffffffffffffffffffffff1681526020019081526020016000209050828282600401918262001a0692919062002aad565b5062001a5683838080601f016020809104026020016040519081016040528093929190818152602001838380828437600081840152601f19601f8201169050808301925050505050505062001b00565b600860008673ffffffffffffffffffffffffffffffffffffffff1673ffffffffffffffffffffffffffffffffffffffff168152602001908152602001600020908162001aa39190620029bb565b5050505050565b62001ab6828262000bae565b62001afc5780826040517fe2517d3f00000000000000000000000000000000000000000000000000000000815260040162001af392919062002ba3565b60405180910390fd5b5050565b60608160405160200162001b15919062001e37565b6040516020818303038152906040529050919050565b6040518060a0016040528060008152602001600073ffffffffffffffffffffffffffffffffffffffff1681526020016060815260200160608152602001606081525090565b50805462001b7e90620021ec565b6000825580601f1062001b92575062001bb3565b601f01602090049060005260206000209081019062001bb2919062001c0a565b5b50565b50805462001bc490620021ec565b6000825580601f1062001bd8575062001bf9565b601f01602090049060005260206000209081019062001bf8919062001c0a565b5b50565b61160d8062002bd183390190565b5b8082111562001c2557600081600090555060010162001c0b565b5090565b6000604051905090565b600080fd5b600080fd5b60007fffffffff0000000000000000000000000000000000000000000000000000000082169050919050565b62001c748162001c3d565b811462001c8057600080fd5b50565b60008135905062001c948162001c69565b92915050565b60006020828403121562001cb35762001cb262001c33565b5b600062001cc38482850162001c83565b91505092915050565b60008115159050919050565b62001ce38162001ccc565b82525050565b600060208201905062001d00600083018462001cd8565b92915050565b600073ffffffffffffffffffffffffffffffffffffffff82169050919050565b600062001d338262001d06565b9050919050565b62001d458162001d26565b811462001d5157600080fd5b50565b60008135905062001d658162001d3a565b92915050565b60006020828403121562001d845762001d8362001c33565b5b600062001d948482850162001d54565b91505092915050565b600081519050919050565b600082825260208201905092915050565b60005b8381101562001dd957808201518184015260208101905062001dbc565b60008484015250505050565b6000601f19601f8301169050919050565b600062001e038262001d9d565b62001e0f818562001da8565b935062001e2181856020860162001db9565b62001e2c8162001de5565b840191505092915050565b6000602082019050818103600083015262001e53818462001df6565b905092915050565b6000819050919050565b62001e708162001e5b565b82525050565b600060208201905062001e8d600083018462001e65565b92915050565b62001e9e8162001e5b565b811462001eaa57600080fd5b50565b60008135905062001ebe8162001e93565b92915050565b60006020828403121562001edd5762001edc62001c33565b5b600062001eed8482850162001ead565b91505092915050565b6000806040838503121562001f105762001f0f62001c33565b5b600062001f208582860162001ead565b925050602062001f338582860162001d54565b9150509250929050565b6000819050919050565b62001f528162001f3d565b82525050565b62001f638162001d26565b82525050565b600082825260208201905092915050565b600062001f878262001d9d565b62001f93818562001f69565b935062001fa581856020860162001db9565b62001fb08162001de5565b840191505092915050565b600060a08301600083015162001fd5600086018262001f47565b50602083015162001fea602086018262001f58565b506040830151848203604086015262002004828262001f7a565b9150506060830151848203606086015262002020828262001f7a565b915050608083015184820360808601526200203c828262001f7a565b9150508091505092915050565b6000602082019050818103600083015262002065818462001fbb565b905092915050565b600080fd5b600060a082840312156200208b576200208a6200206d565b5b81905092915050565b600060208284031215620020ad57620020ac62001c33565b5b600082013567ffffffffffffffff811115620020ce57620020cd62001c38565b5b620020dc8482850162002072565b91505092915050565b600080fd5b600080fd5b600080fd5b60008083601f8401126200210d576200210c620020e5565b5b8235905067ffffffffffffffff8111156200212d576200212c620020ea565b5b6020830191508360018202830111156200214c576200214b620020ef565b5b9250929050565b6000806000604084860312156200216f576200216e62001c33565b5b60006200217f8682870162001d54565b935050602084013567ffffffffffffffff811115620021a357620021a262001c38565b5b620021b186828701620020f4565b92509250509250925092565b7f4e487b7100000000000000000000000000000000000000000000000000000000600052602260045260246000fd5b600060028204905060018216806200220557607f821691505b6020821081036200221b576200221a620021bd565b5b50919050565b600080fd5b7f4e487b7100000000000000000000000000000000000000000000000000000000600052604160045260246000fd5b620022608262001de5565b810181811067ffffffffffffffff8211171562002282576200228162002226565b5b80604052505050565b60006200229762001c29565b9050620022a5828262002255565b919050565b600067ffffffffffffffff821115620022c857620022c762002226565b5b620022d38262001de5565b9050602081019050919050565b6000620022f7620022f184620022aa565b6200228b565b90508281526020810184848401111562002316576200231562002221565b5b6200232384828562001db9565b509392505050565b600082601f830112620023435762002342620020e5565b5b815162002355848260208601620022e0565b91505092915050565b60006020828403121562002377576200237662001c33565b5b600082015167ffffffffffffffff81111562002398576200239762001c38565b5b620023a6848285016200232b565b91505092915050565b600080fd5b600080fd5b600080fd5b60008083356001602003843603038112620023de57620023dd620023af565b5b80840192508235915067ffffffffffffffff821115620024035762002402620023b4565b5b602083019250600182023603831315620024225762002421620023b9565b5b509250929050565b82818337600083830152505050565b600062002447838562001da8565b9350620024568385846200242a565b620024618362001de5565b840190509392505050565b620024778162001f3d565b82525050565b600060608201905081810360008301526200249a81878962002439565b90508181036020830152620024b181858762002439565b9050620024c260408301846200246c565b9695505050505050565b600080fd5b600080fd5b620024e18162001f3d565b8114620024ed57600080fd5b50565b6000813590506200250181620024d6565b92915050565b60006200251e6200251884620022aa565b6200228b565b9050828152602081018484840111156200253d576200253c62002221565b5b6200254a8482856200242a565b509392505050565b600082601f8301126200256a5762002569620020e5565b5b81356200257c84826020860162002507565b91505092915050565b600060a082840312156200259e576200259d620024cc565b5b620025aa60a06200228b565b90506000620025bc84828501620024f0565b6000830152506020620025d28482850162001d54565b602083015250604082013567ffffffffffffffff811115620025f957620025f8620024d1565b5b620026078482850162002552565b604083015250606082013567ffffffffffffffff8111156200262e576200262d620024d1565b5b6200263c8482850162002552565b606083015250608082013567ffffffffffffffff811115620026635762002662620024d1565b5b620026718482850162002552565b60808301525092915050565b60006200268b368362002585565b9050919050565b60008190508160005260206000209050919050565b60006020601f8301049050919050565b600082821b905092915050565b600060088302620026f67fffffffffffffffffffffffffffffffffffffffffffffffffffffffffffffffff82620026b7565b620027028683620026b7565b95508019841693508086168417925050509392505050565b6000819050919050565b6000620027456200273f620027398462001f3d565b6200271a565b62001f3d565b9050919050565b6000819050919050565b620027618362002724565b6200277962002770826200274c565b848454620026c4565b825550505050565b600090565b6200279062002781565b6200279d81848462002756565b505050565b5b81811015620027c557620027b960008262002786565b600181019050620027a3565b5050565b601f8211156200281457620027de8162002692565b620027e984620026a7565b81016020851015620027f9578190505b620028116200280885620026a7565b830182620027a2565b50505b505050565b600082821c905092915050565b6000620028396000198460080262002819565b1980831691505092915050565b600062002854838362002826565b9150826002028217905092915050565b6200286f8262001d9d565b67ffffffffffffffff8111156200288b576200288a62002226565b5b620028978254620021ec565b620028a4828285620027c9565b600060209050601f831160018114620028dc5760008415620028c7578287015190505b620028d3858262002846565b86555062002943565b601f198416620028ec8662002692565b60005b828110156200291657848901518255600182019150602085019450602081019050620028ef565b8683101562002936578489015162002932601f89168262002826565b8355505b6001600288020188555050505b505050505050565b600081519050919050565b60008190508160005260206000209050919050565b601f821115620029b657620029808162002956565b6200298b84620026a7565b810160208510156200299b578190505b620029b3620029aa85620026a7565b830182620027a2565b50505b505050565b620029c6826200294b565b67ffffffffffffffff811115620029e257620029e162002226565b5b620029ee8254620021ec565b620029fb8282856200296b565b600060209050601f83116001811462002a33576000841562002a1e578287015190505b62002a2a858262002846565b86555062002a9a565b601f19841662002a438662002956565b60005b8281101562002a6d5784890151825560018201915060208501945060208101905062002a46565b8683101562002a8d578489015162002a89601f89168262002826565b8355505b6001600288020188555050505b505050505050565b600082905092915050565b62002ab9838362002aa2565b67ffffffffffffffff81111562002ad55762002ad462002226565b5b62002ae18254620021ec565b62002aee828285620027c9565b6000601f83116001811462002b22576000841562002b0d578287013590505b62002b19858262002846565b86555062002b89565b601f19841662002b328662002692565b60005b8281101562002b5c5784890135825560018201915060208501945060208101905062002b35565b8683101562002b7c578489013562002b78601f89168262002826565b8355505b6001600288020188555050505b50505050505050565b62002b9d8162001d26565b82525050565b600060408201905062002bba600083018562002b92565b62002bc9602083018462001e65565b939250505056fe60806040523480156200001157600080fd5b506040516200160d3803806200160d83398181016040528101906200003791906200023d565b828281600390816200004a919062000518565b5080600490816200005c919062000518565b50505080600581905550505050620005ff565b6000604051905090565b600080fd5b600080fd5b600080fd5b600080fd5b6000601f19601f8301169050919050565b7f4e487b7100000000000000000000000000000000000000000000000000000000600052604160045260246000fd5b620000d8826200008d565b810181811067ffffffffffffffff82111715620000fa57620000f96200009e565b5b80604052505050565b60006200010f6200006f565b90506200011d8282620000cd565b919050565b600067ffffffffffffffff82111562000140576200013f6200009e565b5b6200014b826200008d565b9050602081019050919050565b60005b83811015620001785780820151818401526020810190506200015b565b60008484015250505050565b60006200019b620001958462000122565b62000103565b905082815260208101848484011115620001ba57620001b962000088565b5b620001c784828562000158565b509392505050565b600082601f830112620001e757620001e662000083565b5b8151620001f984826020860162000184565b91505092915050565b6000819050919050565b620002178162000202565b81146200022357600080fd5b50565b60008151905062000237816200020c565b92915050565b60008060006060848603121562000259576200025862000079565b5b600084015167ffffffffffffffff8111156200027a57620002796200007e565b5b6200028886828701620001cf565b935050602084015167ffffffffffffffff811115620002ac57620002ab6200007e565b5b620002ba86828701620001cf565b9250506040620002cd8682870162000226565b9150509250925092565b600081519050919050565b7f4e487b7100000000000000000000000000000000000000000000000000000000600052602260045260246000fd5b600060028204905060018216806200032a57607f821691505b60208210810362000340576200033f620002e2565b5b50919050565b60008190508160005260206000209050919050565b60006020601f8301049050919050565b600082821b905092915050565b600060088302620003aa7fffffffffffffffffffffffffffffffffffffffffffffffffffffffffffffffff826200036b565b620003b686836200036b565b95508019841693508086168417925050509392505050565b6000819050919050565b6000620003f9620003f3620003ed8462000202565b620003ce565b62000202565b9050919050565b6000819050919050565b6200041583620003d8565b6200042d620004248262000400565b84845462000378565b825550505050565b600090565b6200044462000435565b620004518184846200040a565b505050565b5b8181101562000479576200046d6000826200043a565b60018101905062000457565b5050565b601f821115620004c857620004928162000346565b6200049d846200035b565b81016020851015620004ad578190505b620004c5620004bc856200035b565b83018262000456565b50505b505050565b600082821c905092915050565b6000620004ed60001984600802620004cd565b1980831691505092915050565b6000620005088383620004da565b9150826002028217905092915050565b6200052382620002d7565b67ffffffffffffffff8111156200053f576200053e6200009e565b5b6200054b825462000311565b620005588282856200047d565b600060209050601f8311600181146200059057600084156200057b578287015190505b620005878582620004fa565b865550620005f7565b601f198416620005a08662000346565b60005b82811015620005ca57848901518255600182019150602085019450602081019050620005a3565b86831015620005ea5784890151620005e6601f891682620004da565b8355505b6001600288020188555050505b505050505050565b610ffe806200060f6000396000f3fe608060405234801561001057600080fd5b50600436106100a95760003560e01c806340c10f191161007157806340c10f191461016857806370a082311461018457806395d89b41146101b4578063a9059cbb146101d2578063d5abeb0114610202578063dd62ed3e14610220576100a9565b806306fdde03146100ae578063095ea7b3146100cc57806318160ddd146100fc57806323b872dd1461011a578063313ce5671461014a575b600080fd5b6100b6610250565b6040516100c39190610be6565b60405180910390f35b6100e660048036038101906100e19190610ca1565b6102e2565b6040516100f39190610cfc565b60405180910390f35b610104610305565b6040516101119190610d26565b60405180910390f35b610134600480360381019061012f9190610d41565b61030f565b6040516101419190610cfc565b60405180910390f35b61015261033e565b60405161015f9190610db0565b60405180910390f35b610182600480360381019061017d9190610ca1565b610347565b005b61019e60048036038101906101999190610dcb565b6103ac565b6040516101ab9190610d26565b60405180910390f35b6101bc6103f4565b6040516101c99190610be6565b60405180910390f35b6101ec60048036038101906101e79190610ca1565b610486565b6040516101f99190610cfc565b60405180910390f35b61020a6104a9565b6040516102179190610d26565b60405180910390f35b61023a60048036038101906102359190610df8565b6104af565b6040516102479190610d26565b60405180910390f35b60606003805461025f90610e67565b80601f016020809104026020016040519081016040528092919081815260200182805461028b90610e67565b80156102d85780601f106102ad576101008083540402835291602001916102d8565b820191906000526020600020905b8154815290600101906020018083116102bb57829003601f168201915b5050505050905090565b6000806102ed610536565b90506102fa81858561053e565b600191505092915050565b6000600254905090565b60008061031a610536565b9050610327858285610550565b6103328585856105e4565b60019150509392505050565b60006012905090565b60055481610353610305565b61035d9190610ec7565b111561039e576040517f08c379a000000000000000000000000000000000000000000000000000000000815260040161039590610f47565b60405180910390fd5b6103a882826106d8565b5050565b60008060008373ffffffffffffffffffffffffffffffffffffffff1673ffffffffffffffffffffffffffffffffffffffff168152602001908152602001600020549050919050565b60606004805461040390610e67565b80601f016020809104026020016040519081016040528092919081815260200182805461042f90610e67565b801561047c5780601f106104515761010080835404028352916020019161047c565b820191906000526020600020905b81548152906001019060200180831161045f57829003601f168201915b5050505050905090565b600080610491610536565b905061049e8185856105e4565b600191505092915050565b60055481565b6000600160008473ffffffffffffffffffffffffffffffffffffffff1673ffffffffffffffffffffffffffffffffffffffff16815260200190815260200160002060008373ffffffffffffffffffffffffffffffffffffffff1673ffffffffffffffffffffffffffffffffffffffff16815260200190815260200160002054905092915050565b600033905090565b61054b838383600161075a565b505050565b600061055c84846104af565b90507fffffffffffffffffffffffffffffffffffffffffffffffffffffffffffffffff81146105de57818110156105ce578281836040517ffb8f41b20000000000000000000000000000000000000000000000000000000081526004016105c593929190610f76565b60405180910390fd5b6105dd8484848403600061075a565b5b50505050565b600073ffffffffffffffffffffffffffffffffffffffff168373ffffffffffffffffffffffffffffffffffffffff16036106565760006040517f96c6fd1e00000000000000000000000000000000000000000000000000000000815260040161064d9190610fad565b60405180910390fd5b600073ffffffffffffffffffffffffffffffffffffffff168273ffffffffffffffffffffffffffffffffffffffff16036106c85760006040517fec442f050000000000000000000000000000000000000000000000000000000081526004016106bf9190610fad565b60405180910390fd5b6106d3838383610931565b505050565b600073ffffffffffffffffffffffffffffffffffffffff168273ffffffffffffffffffffffffffffffffffffffff160361074a5760006040517fec442f050000000000000000000000000000000000000000000000000000000081526004016107419190610fad565b60405180910390fd5b61075660008383610931565b5050565b600073ffffffffffffffffffffffffffffffffffffffff168473ffffffffffffffffffffffffffffffffffffffff16036107cc5760006040517fe602df050000000000000000000000000000000000000000000000000000000081526004016107c39190610fad565b60405180910390fd5b600073ffffffffffffffffffffffffffffffffffffffff168373ffffffffffffffffffffffffffffffffffffffff160361083e5760006040517f94280d620000000000000000000000000000000000000000000000000000000081526004016108359190610fad565b60405180910390fd5b81600160008673ffffffffffffffffffffffffffffffffffffffff1673ffffffffffffffffffffffffffffffffffffffff16815260200190815260200160002060008573ffffffffffffffffffffffffffffffffffffffff1673ffffffffffffffffffffffffffffffffffffffff16815260200190815260200160002081905550801561092b578273ffffffffffffffffffffffffffffffffffffffff168473ffffffffffffffffffffffffffffffffffffffff167f8c5be1e5ebec7d5bd14f71427d1e84f3dd0314c0f7b2291e5b200ac8c7c3b925846040516109229190610d26565b60405180910390a35b50505050565b600073ffffffffffffffffffffffffffffffffffffffff168373ffffffffffffffffffffffffffffffffffffffff16036109835780600260008282546109779190610ec7565b92505081905550610a56565b60008060008573ffffffffffffffffffffffffffffffffffffffff1673ffffffffffffffffffffffffffffffffffffffff16815260200190815260200160002054905081811015610a0f578381836040517fe450d38c000000000000000000000000000000000000000000000000000000008152600401610a0693929190610f76565b60405180910390fd5b8181036000808673ffffffffffffffffffffffffffffffffffffffff1673ffffffffffffffffffffffffffffffffffffffff16815260200190815260200160002081905550505b600073ffffffffffffffffffffffffffffffffffffffff168273ffffffffffffffffffffffffffffffffffffffff1603610a9f5780600260008282540392505081905550610aec565b806000808473ffffffffffffffffffffffffffffffffffffffff1673ffffffffffffffffffffffffffffffffffffffff168152602001908152602001600020600082825401925050819055505b8173ffffffffffffffffffffffffffffffffffffffff168373ffffffffffffffffffffffffffffffffffffffff167fddf252ad1be2c89b69c2b068fc378daa952ba7f163c4a11628f55a4df523b3ef83604051610b499190610d26565b60405180910390a3505050565b600081519050919050565b600082825260208201905092915050565b60005b83811015610b90578082015181840152602081019050610b75565b60008484015250505050565b6000601f19601f8301169050919050565b6000610bb882610b56565b610bc28185610b61565b9350610bd2818560208601610b72565b610bdb81610b9c565b840191505092915050565b60006020820190508181036000830152610c008184610bad565b905092915050565b600080fd5b600073ffffffffffffffffffffffffffffffffffffffff82169050919050565b6000610c3882610c0d565b9050919050565b610c4881610c2d565b8114610c5357600080fd5b50565b600081359050610c6581610c3f565b92915050565b6000819050919050565b610c7e81610c6b565b8114610c8957600080fd5b50565b600081359050610c9b81610c75565b92915050565b60008060408385031215610cb857610cb7610c08565b5b6000610cc685828601610c56565b9250506020610cd785828601610c8c565b9150509250929050565b60008115159050919050565b610cf681610ce1565b82525050565b6000602082019050610d116000830184610ced565b92915050565b610d2081610c6b565b82525050565b6000602082019050610d3b6000830184610d17565b92915050565b600080600060608486031215610d5a57610d59610c08565b5b6000610d6886828701610c56565b9350506020610d7986828701610c56565b9250506040610d8a86828701610c8c565b9150509250925092565b600060ff82169050919050565b610daa81610d94565b82525050565b6000602082019050610dc56000830184610da1565b92915050565b600060208284031215610de157610de0610c08565b5b6000610def84828501610c56565b91505092915050565b60008060408385031215610e0f57610e0e610c08565b5b6000610e1d85828601610c56565b9250506020610e2e85828601610c56565b9150509250929050565b7f4e487b7100000000000000000000000000000000000000000000000000000000600052602260045260246000fd5b60006002820490506001821680610e7f57607f821691505b602082108103610e9257610e91610e38565b5b50919050565b7f4e487b7100000000000000000000000000000000000000000000000000000000600052601160045260246000fd5b6000610ed282610c6b565b9150610edd83610c6b565b9250828201905080821115610ef557610ef4610e98565b5b92915050565b7f4d6f64656c45524332303a206d617820737570706c7920657863656564656400600082015250565b6000610f31601f83610b61565b9150610f3c82610efb565b602082019050919050565b60006020820190508181036000830152610f6081610f24565b9050919050565b610f7081610c2d565b82525050565b6000606082019050610f8b6000830186610f67565b610f986020830185610d17565b610fa56040830184610d17565b949350505050565b6000602082019050610fc26000830184610f67565b9291505056fea2646970667358221220b18ff46b58bb6c72c302f3cc7fc0760c28f9705652e253eeb79c92a13e5fdcf964736f6c6343000818003341737365742073796d626f6c206d757374206265206265747765656e203220616e6420342063686172616374657273a2646970667358221220f60649bf223d9dd0fa5021e5606222de4f0092ae7fb70bf5b3903d4f8365cbd564736f6c63430008180033",
  "linkReferences": {},
  "deployedLinkReferences": {}
}